{
  "contractName": "DeflationaryTokenFactory",
  "abi": [
    {
      "inputs": [
        {
          "internalType": "address",
          "name": "_owner",
          "type": "address"
        }
      ],
      "stateMutability": "nonpayable",
      "type": "constructor"
    },
    {
      "anonymous": false,
      "inputs": [
        {
          "indexed": false,
          "internalType": "address",
          "name": "TokenAddress",
          "type": "address"
        }
      ],
      "name": "TokenCreated",
      "type": "event"
    },
    {
      "inputs": [],
      "name": "owner",
      "outputs": [
        {
          "internalType": "address",
          "name": "",
          "type": "address"
        }
      ],
      "stateMutability": "view",
      "type": "function"
    },
    {
      "inputs": [
        {
          "internalType": "address",
          "name": "",
          "type": "address"
        }
      ],
      "name": "tokenName",
      "outputs": [
        {
          "internalType": "string",
          "name": "",
          "type": "string"
        }
      ],
      "stateMutability": "view",
      "type": "function"
    },
    {
      "inputs": [
        {
          "internalType": "uint256",
          "name": "",
          "type": "uint256"
        }
      ],
      "name": "tokensCreated",
      "outputs": [
        {
          "internalType": "address",
          "name": "",
          "type": "address"
        }
      ],
      "stateMutability": "view",
      "type": "function"
    },
    {
      "inputs": [
        {
          "internalType": "string",
          "name": "_name",
          "type": "string"
        },
        {
          "internalType": "string",
          "name": "_symbol",
          "type": "string"
        },
        {
          "internalType": "uint256",
          "name": "_supply",
          "type": "uint256"
        },
        {
          "internalType": "address",
          "name": "_minter",
          "type": "address"
        },
        {
          "internalType": "uint8",
          "name": "_transferFee",
          "type": "uint8"
        }
      ],
      "name": "newToken",
      "outputs": [],
      "stateMutability": "nonpayable",
      "type": "function"
    }
  ],
  "bytecode": "0x608060405234801561001057600080fd5b50604051612d52380380612d528339818101604052810190610032919061008e565b80600260006101000a81548173ffffffffffffffffffffffffffffffffffffffff021916908373ffffffffffffffffffffffffffffffffffffffff16021790555050610100565b600081519050610088816100e9565b92915050565b6000602082840312156100a057600080fd5b60006100ae84828501610079565b91505092915050565b60006100c2826100c9565b9050919050565b600073ffffffffffffffffffffffffffffffffffffffff82169050919050565b6100f2816100b7565b81146100fd57600080fd5b50565b612c438061010f6000396000f3fe60806040523480156200001157600080fd5b5060043610620000525760003560e01c806341abf57114620000575780638da5cb5b146200008d5780638fe17ad514620000af578063e54f752214620000cf575b600080fd5b6200007560048036038101906200006f9190620005a6565b62000105565b60405162000084919062000646565b60405180910390f35b6200009762000145565b604051620000a6919062000646565b60405180910390f35b620000cd6004803603810190620000c79190620004f2565b6200016b565b005b620000ed6004803603810190620000e79190620004c6565b620002a9565b604051620000fc919062000663565b60405180910390f35b600181815481106200011657600080fd5b906000526020600020016000915054906101000a900473ffffffffffffffffffffffffffffffffffffffff1681565b600260009054906101000a900473ffffffffffffffffffffffffffffffffffffffff1681565b60008585858585604051620001809062000351565b6200019095949392919062000687565b604051809103906000f080158015620001ad573d6000803e3d6000fd5b509050856000808373ffffffffffffffffffffffffffffffffffffffff1673ffffffffffffffffffffffffffffffffffffffff1681526020019081526020016000209080519060200190620002049291906200035f565b506001819080600181540180825580915050600190039060005260206000200160009091909190916101000a81548173ffffffffffffffffffffffffffffffffffffffff021916908373ffffffffffffffffffffffffffffffffffffffff1602179055507f2e2b3f61b70d2d131b2a807371103cc98d51adcaa5e9a8f9c32658ad8426e74e8160405162000299919062000646565b60405180910390a1505050505050565b60006020528060005260406000206000915090508054620002ca9062000805565b80601f0160208091040260200160405190810160405280929190818152602001828054620002f89062000805565b8015620003495780601f106200031d5761010080835404028352916020019162000349565b820191906000526020600020905b8154815290600101906020018083116200032b57829003601f168201915b505050505081565b61231580620008f983390190565b8280546200036d9062000805565b90600052602060002090601f016020900481019282620003915760008555620003dd565b82601f10620003ac57805160ff1916838001178555620003dd565b82800160010185558215620003dd579182015b82811115620003dc578251825591602001919060010190620003bf565b5b509050620003ec9190620003f0565b5090565b5b808211156200040b576000816000905550600101620003f1565b5090565b600062000426620004208462000726565b620006f2565b9050828152602081018484840111156200043f57600080fd5b6200044c848285620007c0565b509392505050565b6000813590506200046581620008aa565b92915050565b600082601f8301126200047d57600080fd5b81356200048f8482602086016200040f565b91505092915050565b600081359050620004a981620008c4565b92915050565b600081359050620004c081620008de565b92915050565b600060208284031215620004d957600080fd5b6000620004e98482850162000454565b91505092915050565b600080600080600060a086880312156200050b57600080fd5b600086013567ffffffffffffffff8111156200052657600080fd5b62000534888289016200046b565b955050602086013567ffffffffffffffff8111156200055257600080fd5b62000560888289016200046b565b9450506040620005738882890162000498565b9350506060620005868882890162000454565b92505060806200059988828901620004af565b9150509295509295909350565b600060208284031215620005b957600080fd5b6000620005c98482850162000498565b91505092915050565b620005dd8162000775565b82525050565b6000620005f08262000759565b620005fc818562000764565b93506200060e818560208601620007cf565b620006198162000899565b840191505092915050565b6200062f81620007a9565b82525050565b6200064081620007b3565b82525050565b60006020820190506200065d6000830184620005d2565b92915050565b600060208201905081810360008301526200067f8184620005e3565b905092915050565b600060a0820190508181036000830152620006a38188620005e3565b90508181036020830152620006b98187620005e3565b9050620006ca604083018662000624565b620006d96060830185620005d2565b620006e8608083018462000635565b9695505050505050565b6000604051905081810181811067ffffffffffffffff821117156200071c576200071b6200086a565b5b8060405250919050565b600067ffffffffffffffff8211156200074457620007436200086a565b5b601f19601f8301169050602081019050919050565b600081519050919050565b600082825260208201905092915050565b6000620007828262000789565b9050919050565b600073ffffffffffffffffffffffffffffffffffffffff82169050919050565b6000819050919050565b600060ff82169050919050565b82818337600083830152505050565b60005b83811015620007ef578082015181840152602081019050620007d2565b83811115620007ff576000848401525b50505050565b600060028204905060018216806200081e57607f821691505b602082108114156200083557620008346200083b565b5b50919050565b7f4e487b7100000000000000000000000000000000000000000000000000000000600052602260045260246000fd5b7f4e487b7100000000000000000000000000000000000000000000000000000000600052604160045260246000fd5b6000601f19601f8301169050919050565b620008b58162000775565b8114620008c157600080fd5b50565b620008cf81620007a9565b8114620008db57600080fd5b50565b620008e981620007b3565b8114620008f557600080fd5b5056fe60806040523480156200001157600080fd5b5060405162002315380380620023158339818101604052810190620000379190620002cf565b848481600390805190602001906200005192919062000168565b5080600490805190602001906200006a92919062000168565b50505060648160ff161115620000b7576040517f08c379a0000000000000000000000000000000000000000000000000000000008152600401620000ae90620003c5565b60405180910390fd5b8260078190555081600560006101000a81548173ffffffffffffffffffffffffffffffffffffffff021916908373ffffffffffffffffffffffffffffffffffffffff16021790555080600860006101000a81548160ff021916908360ff16021790555061dead600660006101000a81548173ffffffffffffffffffffffffffffffffffffffff021916908373ffffffffffffffffffffffffffffffffffffffff1602179055505050505050620005c2565b8280546200017690620004e0565b90600052602060002090601f0160209004810192826200019a5760008555620001e6565b82601f10620001b557805160ff1916838001178555620001e6565b82800160010185558215620001e6579182015b82811115620001e5578251825591602001919060010190620001c8565b5b509050620001f59190620001f9565b5090565b5b8082111562000214576000816000905550600101620001fa565b5090565b60006200022f62000229846200041b565b620003e7565b9050828152602081018484840111156200024857600080fd5b62000255848285620004aa565b509392505050565b6000815190506200026e8162000574565b92915050565b600082601f8301126200028657600080fd5b81516200029884826020860162000218565b91505092915050565b600081519050620002b2816200058e565b92915050565b600081519050620002c981620005a8565b92915050565b600080600080600060a08688031215620002e857600080fd5b600086015167ffffffffffffffff8111156200030357600080fd5b620003118882890162000274565b955050602086015167ffffffffffffffff8111156200032f57600080fd5b6200033d8882890162000274565b94505060406200035088828901620002a1565b935050606062000363888289016200025d565b92505060806200037688828901620002b8565b9150509295509295909350565b6000620003926014836200044e565b91507f496e76616c6964205472616e73666572204665650000000000000000000000006000830152602082019050919050565b60006020820190508181036000830152620003e08162000383565b9050919050565b6000604051905081810181811067ffffffffffffffff8211171562000411576200041062000545565b5b8060405250919050565b600067ffffffffffffffff82111562000439576200043862000545565b5b601f19601f8301169050602081019050919050565b600082825260208201905092915050565b60006200046c8262000473565b9050919050565b600073ffffffffffffffffffffffffffffffffffffffff82169050919050565b6000819050919050565b600060ff82169050919050565b60005b83811015620004ca578082015181840152602081019050620004ad565b83811115620004da576000848401525b50505050565b60006002820490506001821680620004f957607f821691505b6020821081141562000510576200050f62000516565b5b50919050565b7f4e487b7100000000000000000000000000000000000000000000000000000000600052602260045260246000fd5b7f4e487b7100000000000000000000000000000000000000000000000000000000600052604160045260246000fd5b6200057f816200045f565b81146200058b57600080fd5b50565b620005998162000493565b8114620005a557600080fd5b50565b620005b3816200049d565b8114620005bf57600080fd5b50565b611d4380620005d26000396000f3fe608060405234801561001057600080fd5b50600436106101165760003560e01c806370a08231116100a2578063a457c2d711610071578063a457c2d7146102e5578063a9059cbb14610315578063acb2ad6f14610345578063dd62ed3e14610363578063fca3b5aa1461039357610116565b806370a082311461025d57806370d5ae051461028d57806395d89b41146102ab57806397304ced146102c957610116565b806318160ddd116100e957806318160ddd146101a557806323b872dd146101c3578063313ce567146101f357806339509351146102115780634087b80c1461024157610116565b8063047fc9aa1461011b57806306fdde03146101395780630754617214610157578063095ea7b314610175575b600080fd5b6101236103af565b6040516101309190611a09565b60405180910390f35b6101416103b5565b60405161014e9190611887565b60405180910390f35b61015f610447565b60405161016c9190611851565b60405180910390f35b61018f600480360381019061018a9190611384565b61046d565b60405161019c919061186c565b60405180910390f35b6101ad610490565b6040516101ba9190611a09565b60405180910390f35b6101dd60048036038101906101d89190611335565b61049a565b6040516101ea919061186c565b60405180910390f35b6101fb61054c565b6040516102089190611a24565b60405180910390f35b61022b60048036038101906102269190611384565b610555565b604051610238919061186c565b60405180910390f35b61025b600480360381019061025691906113e9565b6105ff565b005b610277600480360381019061027291906112d0565b6106f4565b6040516102849190611a09565b60405180910390f35b61029561073c565b6040516102a29190611851565b60405180910390f35b6102b3610762565b6040516102c09190611887565b60405180910390f35b6102e360048036038101906102de91906113c0565b6107f4565b005b6102ff60048036038101906102fa9190611384565b6108f1565b60405161030c919061186c565b60405180910390f35b61032f600480360381019061032a9190611384565b6109db565b60405161033c919061186c565b60405180910390f35b61034d610a81565b60405161035a9190611a24565b60405180910390f35b61037d600480360381019061037891906112f9565b610a94565b60405161038a9190611a09565b60405180910390f35b6103ad60048036038101906103a891906112d0565b610b1b565b005b60075481565b6060600380546103c490611bf8565b80601f01602080910402602001604051908101604052809291908181526020018280546103f090611bf8565b801561043d5780601f106104125761010080835404028352916020019161043d565b820191906000526020600020905b81548152906001019060200180831161042057829003601f168201915b5050505050905090565b600560009054906101000a900473ffffffffffffffffffffffffffffffffffffffff1681565b600080610478610bef565b9050610485818585610bf7565b600191505092915050565b6000600254905090565b6000806104a5610bef565b90506104b2858285610dc2565b60006104ed6103e86104df600860009054906101000a900460ff1660ff1687610e4e90919063ffffffff16565b610e6490919063ffffffff16565b905060006105048286610e7a90919063ffffffff16565b905061053387600660009054906101000a900473ffffffffffffffffffffffffffffffffffffffff1684610e90565b61053e878783610e90565b600193505050509392505050565b60006012905090565b600080610560610bef565b90506105f4818585600160008673ffffffffffffffffffffffffffffffffffffffff1673ffffffffffffffffffffffffffffffffffffffff16815260200190815260200160002060008973ffffffffffffffffffffffffffffffffffffffff1673ffffffffffffffffffffffffffffffffffffffff168152602001908152602001600020546105ef9190611a5b565b610bf7565b600191505092915050565b600560009054906101000a900473ffffffffffffffffffffffffffffffffffffffff1673ffffffffffffffffffffffffffffffffffffffff163373ffffffffffffffffffffffffffffffffffffffff161461068f576040517f08c379a0000000000000000000000000000000000000000000000000000000008152600401610686906119a9565b60405180910390fd5b60648160ff1611156106d6576040517f08c379a00000000000000000000000000000000000000000000000000000000081526004016106cd90611949565b60405180910390fd5b80600860006101000a81548160ff021916908360ff16021790555050565b60008060008373ffffffffffffffffffffffffffffffffffffffff1673ffffffffffffffffffffffffffffffffffffffff168152602001908152602001600020549050919050565b600660009054906101000a900473ffffffffffffffffffffffffffffffffffffffff1681565b60606004805461077190611bf8565b80601f016020809104026020016040519081016040528092919081815260200182805461079d90611bf8565b80156107ea5780601f106107bf576101008083540402835291602001916107ea565b820191906000526020600020905b8154815290600101906020018083116107cd57829003601f168201915b5050505050905090565b600560009054906101000a900473ffffffffffffffffffffffffffffffffffffffff1673ffffffffffffffffffffffffffffffffffffffff163373ffffffffffffffffffffffffffffffffffffffff1614610884576040517f08c379a000000000000000000000000000000000000000000000000000000000815260040161087b906119a9565b60405180910390fd5b806007546108a282610894610490565b61111190919063ffffffff16565b11156108e3576040517f08c379a00000000000000000000000000000000000000000000000000000000081526004016108da90611929565b60405180910390fd5b6108ed3383611127565b5050565b6000806108fc610bef565b90506000600160008373ffffffffffffffffffffffffffffffffffffffff1673ffffffffffffffffffffffffffffffffffffffff16815260200190815260200160002060008673ffffffffffffffffffffffffffffffffffffffff1673ffffffffffffffffffffffffffffffffffffffff168152602001908152602001600020549050838110156109c2576040517f08c379a00000000000000000000000000000000000000000000000000000000081526004016109b9906119c9565b60405180910390fd5b6109cf8286868403610bf7565b60019250505092915050565b6000806109e6610bef565b90506000610a236103e8610a15600860009054906101000a900460ff1660ff1687610e4e90919063ffffffff16565b610e6490919063ffffffff16565b90506000610a3a8286610e7a90919063ffffffff16565b9050610a6983600660009054906101000a900473ffffffffffffffffffffffffffffffffffffffff1684610e90565b610a74838783610e90565b6001935050505092915050565b600860009054906101000a900460ff1681565b6000600160008473ffffffffffffffffffffffffffffffffffffffff1673ffffffffffffffffffffffffffffffffffffffff16815260200190815260200160002060008373ffffffffffffffffffffffffffffffffffffffff1673ffffffffffffffffffffffffffffffffffffffff16815260200190815260200160002054905092915050565b600560009054906101000a900473ffffffffffffffffffffffffffffffffffffffff1673ffffffffffffffffffffffffffffffffffffffff163373ffffffffffffffffffffffffffffffffffffffff1614610bab576040517f08c379a0000000000000000000000000000000000000000000000000000000008152600401610ba2906119a9565b60405180910390fd5b80600560006101000a81548173ffffffffffffffffffffffffffffffffffffffff021916908373ffffffffffffffffffffffffffffffffffffffff16021790555050565b600033905090565b600073ffffffffffffffffffffffffffffffffffffffff168373ffffffffffffffffffffffffffffffffffffffff161415610c67576040517f08c379a0000000000000000000000000000000000000000000000000000000008152600401610c5e90611989565b60405180910390fd5b600073ffffffffffffffffffffffffffffffffffffffff168273ffffffffffffffffffffffffffffffffffffffff161415610cd7576040517f08c379a0000000000000000000000000000000000000000000000000000000008152600401610cce906118c9565b60405180910390fd5b80600160008573ffffffffffffffffffffffffffffffffffffffff1673ffffffffffffffffffffffffffffffffffffffff16815260200190815260200160002060008473ffffffffffffffffffffffffffffffffffffffff1673ffffffffffffffffffffffffffffffffffffffff168152602001908152602001600020819055508173ffffffffffffffffffffffffffffffffffffffff168373ffffffffffffffffffffffffffffffffffffffff167f8c5be1e5ebec7d5bd14f71427d1e84f3dd0314c0f7b2291e5b200ac8c7c3b92583604051610db59190611a09565b60405180910390a3505050565b6000610dce8484610a94565b90507fffffffffffffffffffffffffffffffffffffffffffffffffffffffffffffffff8114610e485781811015610e3a576040517f08c379a0000000000000000000000000000000000000000000000000000000008152600401610e31906118e9565b60405180910390fd5b610e478484848403610bf7565b5b50505050565b60008183610e5c9190611ae2565b905092915050565b60008183610e729190611ab1565b905092915050565b60008183610e889190611b3c565b905092915050565b600073ffffffffffffffffffffffffffffffffffffffff168373ffffffffffffffffffffffffffffffffffffffff161415610f00576040517f08c379a0000000000000000000000000000000000000000000000000000000008152600401610ef790611969565b60405180910390fd5b600073ffffffffffffffffffffffffffffffffffffffff168273ffffffffffffffffffffffffffffffffffffffff161415610f70576040517f08c379a0000000000000000000000000000000000000000000000000000000008152600401610f67906118a9565b60405180910390fd5b610f7b838383611287565b60008060008573ffffffffffffffffffffffffffffffffffffffff1673ffffffffffffffffffffffffffffffffffffffff16815260200190815260200160002054905081811015611001576040517f08c379a0000000000000000000000000000000000000000000000000000000008152600401610ff890611909565b60405180910390fd5b8181036000808673ffffffffffffffffffffffffffffffffffffffff1673ffffffffffffffffffffffffffffffffffffffff16815260200190815260200160002081905550816000808573ffffffffffffffffffffffffffffffffffffffff1673ffffffffffffffffffffffffffffffffffffffff16815260200190815260200160002060008282546110949190611a5b565b925050819055508273ffffffffffffffffffffffffffffffffffffffff168473ffffffffffffffffffffffffffffffffffffffff167fddf252ad1be2c89b69c2b068fc378daa952ba7f163c4a11628f55a4df523b3ef846040516110f89190611a09565b60405180910390a361110b84848461128c565b50505050565b6000818361111f9190611a5b565b905092915050565b600073ffffffffffffffffffffffffffffffffffffffff168273ffffffffffffffffffffffffffffffffffffffff161415611197576040517f08c379a000000000000000000000000000000000000000000000000000000000815260040161118e906119e9565b60405180910390fd5b6111a360008383611287565b80600260008282546111b59190611a5b565b92505081905550806000808473ffffffffffffffffffffffffffffffffffffffff1673ffffffffffffffffffffffffffffffffffffffff168152602001908152602001600020600082825461120a9190611a5b565b925050819055508173ffffffffffffffffffffffffffffffffffffffff16600073ffffffffffffffffffffffffffffffffffffffff167fddf252ad1be2c89b69c2b068fc378daa952ba7f163c4a11628f55a4df523b3ef8360405161126f9190611a09565b60405180910390a36112836000838361128c565b5050565b505050565b505050565b6000813590506112a081611cc8565b92915050565b6000813590506112b581611cdf565b92915050565b6000813590506112ca81611cf6565b92915050565b6000602082840312156112e257600080fd5b60006112f084828501611291565b91505092915050565b6000806040838503121561130c57600080fd5b600061131a85828601611291565b925050602061132b85828601611291565b9150509250929050565b60008060006060848603121561134a57600080fd5b600061135886828701611291565b935050602061136986828701611291565b925050604061137a868287016112a6565b9150509250925092565b6000806040838503121561139757600080fd5b60006113a585828601611291565b92505060206113b6858286016112a6565b9150509250929050565b6000602082840312156113d257600080fd5b60006113e0848285016112a6565b91505092915050565b6000602082840312156113fb57600080fd5b6000611409848285016112bb565b91505092915050565b61141b81611b70565b82525050565b61142a81611b82565b82525050565b600061143b82611a3f565b6114458185611a4a565b9350611455818560208601611bc5565b61145e81611cb7565b840191505092915050565b6000611476602383611a4a565b91507f45524332303a207472616e7366657220746f20746865207a65726f206164647260008301527f65737300000000000000000000000000000000000000000000000000000000006020830152604082019050919050565b60006114dc602283611a4a565b91507f45524332303a20617070726f766520746f20746865207a65726f20616464726560008301527f73730000000000000000000000000000000000000000000000000000000000006020830152604082019050919050565b6000611542601d83611a4a565b91507f45524332303a20696e73756666696369656e7420616c6c6f77616e63650000006000830152602082019050919050565b6000611582602683611a4a565b91507f45524332303a207472616e7366657220616d6f756e742065786365656473206260008301527f616c616e636500000000000000000000000000000000000000000000000000006020830152604082019050919050565b60006115e8600f83611a4a565b91507f537570706c79204f766572666c6f7700000000000000000000000000000000006000830152602082019050919050565b6000611628602c83611a4a565b91507f496e76616c6964205472616e73666572204665652053686f756c64206265204260008301527f65747765656e20302d31303000000000000000000000000000000000000000006020830152604082019050919050565b600061168e602583611a4a565b91507f45524332303a207472616e736665722066726f6d20746865207a65726f20616460008301527f64726573730000000000000000000000000000000000000000000000000000006020830152604082019050919050565b60006116f4602483611a4a565b91507f45524332303a20617070726f76652066726f6d20746865207a65726f2061646460008301527f72657373000000000000000000000000000000000000000000000000000000006020830152604082019050919050565b600061175a600a83611a4a565b91507f4e6f74204d696e746572000000000000000000000000000000000000000000006000830152602082019050919050565b600061179a602583611a4a565b91507f45524332303a2064656372656173656420616c6c6f77616e63652062656c6f7760008301527f207a65726f0000000000000000000000000000000000000000000000000000006020830152604082019050919050565b6000611800601f83611a4a565b91507f45524332303a206d696e7420746f20746865207a65726f2061646472657373006000830152602082019050919050565b61183c81611bae565b82525050565b61184b81611bb8565b82525050565b60006020820190506118666000830184611412565b92915050565b60006020820190506118816000830184611421565b92915050565b600060208201905081810360008301526118a18184611430565b905092915050565b600060208201905081810360008301526118c281611469565b9050919050565b600060208201905081810360008301526118e2816114cf565b9050919050565b6000602082019050818103600083015261190281611535565b9050919050565b6000602082019050818103600083015261192281611575565b9050919050565b60006020820190508181036000830152611942816115db565b9050919050565b600060208201905081810360008301526119628161161b565b9050919050565b6000602082019050818103600083015261198281611681565b9050919050565b600060208201905081810360008301526119a2816116e7565b9050919050565b600060208201905081810360008301526119c28161174d565b9050919050565b600060208201905081810360008301526119e28161178d565b9050919050565b60006020820190508181036000830152611a02816117f3565b9050919050565b6000602082019050611a1e6000830184611833565b92915050565b6000602082019050611a396000830184611842565b92915050565b600081519050919050565b600082825260208201905092915050565b6000611a6682611bae565b9150611a7183611bae565b9250827fffffffffffffffffffffffffffffffffffffffffffffffffffffffffffffffff03821115611aa657611aa5611c2a565b5b828201905092915050565b6000611abc82611bae565b9150611ac783611bae565b925082611ad757611ad6611c59565b5b828204905092915050565b6000611aed82611bae565b9150611af883611bae565b9250817fffffffffffffffffffffffffffffffffffffffffffffffffffffffffffffffff0483118215151615611b3157611b30611c2a565b5b828202905092915050565b6000611b4782611bae565b9150611b5283611bae565b925082821015611b6557611b64611c2a565b5b828203905092915050565b6000611b7b82611b8e565b9050919050565b60008115159050919050565b600073ffffffffffffffffffffffffffffffffffffffff82169050919050565b6000819050919050565b600060ff82169050919050565b60005b83811015611be3578082015181840152602081019050611bc8565b83811115611bf2576000848401525b50505050565b60006002820490506001821680611c1057607f821691505b60208210811415611c2457611c23611c88565b5b50919050565b7f4e487b7100000000000000000000000000000000000000000000000000000000600052601160045260246000fd5b7f4e487b7100000000000000000000000000000000000000000000000000000000600052601260045260246000fd5b7f4e487b7100000000000000000000000000000000000000000000000000000000600052602260045260246000fd5b6000601f19601f8301169050919050565b611cd181611b70565b8114611cdc57600080fd5b50565b611ce881611bae565b8114611cf357600080fd5b50565b611cff81611bb8565b8114611d0a57600080fd5b5056fea2646970667358221220d10b12909352850f747bebd10a3d8d0f328cc7ca05444008184b261a65be31cb64736f6c63430008000033a264697066735822122050009ce7f141f21238aafbc1ef9078b94afc3c530673f4a5c854f5eb5801751464736f6c63430008000033",
  "immutableReferences": {},
  "source": "// SPDX-License-Identifier: MIT\npragma solidity ^0.8.0;\n\nimport \"./DeflationaryTokenContract.sol\";\n\n\ncontract DeflationaryTokenFactory {\n\n    event TokenCreated(\n        address TokenAddress\n    );\n\n    mapping(address=>string) public tokenName;\n    address[] public tokensCreated;\n    address public owner;\n\n    constructor(address _owner) {\n        owner=_owner;\n    }\n\n    function newToken(string memory _name, string memory _symbol,uint256 _supply, address _minter, uint8 _transferFee)\n        public\n    {\n        DeflationaryTokenContract token = new DeflationaryTokenContract(_name, _symbol, _supply, _minter,_transferFee);\n        tokenName[address(token)]=_name;\n        tokensCreated.push(address(token));\n        emit TokenCreated(address(token));\n    }\n}\n",
  "sourcePath": "/Users/personal/Documents/ factory example/contracts/Deflationary/DeflationaryTokenFactory.sol",
  "compiler": {
    "name": "solc",
    "version": "0.8.0+commit.c7dfd78e.Emscripten.clang"
  },
  "schemaVersion": "3.4.1",
  "updatedAt": "2022-04-17T18:40:03.098Z",
  "devdoc": {
    "kind": "dev",
    "methods": {},
    "version": 1
  },
  "userdoc": {
    "kind": "user",
    "methods": {},
    "version": 1
  }
}