{
  "contractName": "GenesisToken",
  "abi": [
    {
      "inputs": [],
      "stateMutability": "nonpayable",
      "type": "constructor"
    },
    {
      "anonymous": false,
      "inputs": [
        {
          "indexed": true,
          "internalType": "address",
          "name": "owner",
          "type": "address"
        },
        {
          "indexed": true,
          "internalType": "address",
          "name": "spender",
          "type": "address"
        },
        {
          "indexed": false,
          "internalType": "uint256",
          "name": "value",
          "type": "uint256"
        }
      ],
      "name": "Approval",
      "type": "event"
    },
    {
      "anonymous": false,
      "inputs": [
        {
          "indexed": false,
          "internalType": "address",
          "name": "_recipent",
          "type": "address"
        },
        {
          "indexed": false,
          "internalType": "uint256",
          "name": "_amount",
          "type": "uint256"
        }
      ],
      "name": "Mint",
      "type": "event"
    },
    {
      "anonymous": false,
      "inputs": [
        {
          "indexed": false,
          "internalType": "address",
          "name": "_minter",
          "type": "address"
        }
      ],
      "name": "SetMinter",
      "type": "event"
    },
    {
      "anonymous": false,
      "inputs": [
        {
          "indexed": true,
          "internalType": "address",
          "name": "from",
          "type": "address"
        },
        {
          "indexed": true,
          "internalType": "address",
          "name": "to",
          "type": "address"
        },
        {
          "indexed": false,
          "internalType": "uint256",
          "name": "value",
          "type": "uint256"
        }
      ],
      "name": "Transfer",
      "type": "event"
    },
    {
      "inputs": [
        {
          "internalType": "address",
          "name": "owner",
          "type": "address"
        },
        {
          "internalType": "address",
          "name": "spender",
          "type": "address"
        }
      ],
      "name": "allowance",
      "outputs": [
        {
          "internalType": "uint256",
          "name": "",
          "type": "uint256"
        }
      ],
      "stateMutability": "view",
      "type": "function",
      "constant": true
    },
    {
      "inputs": [
        {
          "internalType": "address",
          "name": "spender",
          "type": "address"
        },
        {
          "internalType": "uint256",
          "name": "amount",
          "type": "uint256"
        }
      ],
      "name": "approve",
      "outputs": [
        {
          "internalType": "bool",
          "name": "",
          "type": "bool"
        }
      ],
      "stateMutability": "nonpayable",
      "type": "function"
    },
    {
      "inputs": [
        {
          "internalType": "address",
          "name": "account",
          "type": "address"
        }
      ],
      "name": "balanceOf",
      "outputs": [
        {
          "internalType": "uint256",
          "name": "",
          "type": "uint256"
        }
      ],
      "stateMutability": "view",
      "type": "function",
      "constant": true
    },
    {
      "inputs": [],
      "name": "decimals",
      "outputs": [
        {
          "internalType": "uint8",
          "name": "",
          "type": "uint8"
        }
      ],
      "stateMutability": "view",
      "type": "function",
      "constant": true
    },
    {
      "inputs": [
        {
          "internalType": "address",
          "name": "spender",
          "type": "address"
        },
        {
          "internalType": "uint256",
          "name": "subtractedValue",
          "type": "uint256"
        }
      ],
      "name": "decreaseAllowance",
      "outputs": [
        {
          "internalType": "bool",
          "name": "",
          "type": "bool"
        }
      ],
      "stateMutability": "nonpayable",
      "type": "function"
    },
    {
      "inputs": [
        {
          "internalType": "address",
          "name": "spender",
          "type": "address"
        },
        {
          "internalType": "uint256",
          "name": "addedValue",
          "type": "uint256"
        }
      ],
      "name": "increaseAllowance",
      "outputs": [
        {
          "internalType": "bool",
          "name": "",
          "type": "bool"
        }
      ],
      "stateMutability": "nonpayable",
      "type": "function"
    },
    {
      "inputs": [
        {
          "internalType": "address",
          "name": "",
          "type": "address"
        }
      ],
      "name": "mintInfo",
      "outputs": [
        {
          "internalType": "uint256",
          "name": "mintedAmount",
          "type": "uint256"
        }
      ],
      "stateMutability": "view",
      "type": "function",
      "constant": true
    },
    {
      "inputs": [],
      "name": "name",
      "outputs": [
        {
          "internalType": "string",
          "name": "",
          "type": "string"
        }
      ],
      "stateMutability": "view",
      "type": "function",
      "constant": true
    },
    {
      "inputs": [],
      "name": "supply",
      "outputs": [
        {
          "internalType": "uint256",
          "name": "",
          "type": "uint256"
        }
      ],
      "stateMutability": "view",
      "type": "function",
      "constant": true
    },
    {
      "inputs": [],
      "name": "symbol",
      "outputs": [
        {
          "internalType": "string",
          "name": "",
          "type": "string"
        }
      ],
      "stateMutability": "view",
      "type": "function",
      "constant": true
    },
    {
      "inputs": [],
      "name": "totalSupply",
      "outputs": [
        {
          "internalType": "uint256",
          "name": "",
          "type": "uint256"
        }
      ],
      "stateMutability": "view",
      "type": "function",
      "constant": true
    },
    {
      "inputs": [
        {
          "internalType": "address",
          "name": "to",
          "type": "address"
        },
        {
          "internalType": "uint256",
          "name": "amount",
          "type": "uint256"
        }
      ],
      "name": "transfer",
      "outputs": [
        {
          "internalType": "bool",
          "name": "",
          "type": "bool"
        }
      ],
      "stateMutability": "nonpayable",
      "type": "function"
    },
    {
      "inputs": [
        {
          "internalType": "address",
          "name": "from",
          "type": "address"
        },
        {
          "internalType": "address",
          "name": "to",
          "type": "address"
        },
        {
          "internalType": "uint256",
          "name": "amount",
          "type": "uint256"
        }
      ],
      "name": "transferFrom",
      "outputs": [
        {
          "internalType": "bool",
          "name": "",
          "type": "bool"
        }
      ],
      "stateMutability": "nonpayable",
      "type": "function"
    },
    {
      "inputs": [
        {
          "internalType": "uint256",
          "name": "_amount",
          "type": "uint256"
        }
      ],
      "name": "mintTokens",
      "outputs": [],
      "stateMutability": "nonpayable",
      "type": "function"
    }
  ],
  "bytecode": "0x6080604052683635c9adc5dea000006005553480156200001e57600080fd5b506040518060400160405280601181526020017f47454e4553495320434f4d4d554e4954590000000000000000000000000000008152506040518060400160405280600581526020017f474353484d0000000000000000000000000000000000000000000000000000008152508160039080519060200190620000a3929190620000c5565b508060049080519060200190620000bc929190620000c5565b505050620001da565b828054620000d39062000175565b90600052602060002090601f016020900481019282620000f7576000855562000143565b82601f106200011257805160ff191683800117855562000143565b8280016001018555821562000143579182015b828111156200014257825182559160200191906001019062000125565b5b50905062000152919062000156565b5090565b5b808211156200017157600081600090555060010162000157565b5090565b600060028204905060018216806200018e57607f821691505b60208210811415620001a557620001a4620001ab565b5b50919050565b7f4e487b7100000000000000000000000000000000000000000000000000000000600052602260045260246000fd5b61191f80620001ea6000396000f3fe608060405234801561001057600080fd5b50600436106100ea5760003560e01c80634ba59aeb1161008c57806397304ced1161006657806397304ced14610275578063a457c2d714610291578063a9059cbb146102c1578063dd62ed3e146102f1576100ea565b80634ba59aeb146101f757806370a082311461022757806395d89b4114610257576100ea565b806318160ddd116100c857806318160ddd1461015b57806323b872dd14610179578063313ce567146101a957806339509351146101c7576100ea565b8063047fc9aa146100ef57806306fdde031461010d578063095ea7b31461012b575b600080fd5b6100f7610321565b60405161010491906116ea565b60405180910390f35b610115610327565b6040516101229190611568565b60405180910390f35b61014560048036038101906101409190611080565b6103b9565b604051610152919061154d565b60405180910390f35b6101636103dc565b60405161017091906116ea565b60405180910390f35b610193600480360381019061018e9190611031565b6103e6565b6040516101a0919061154d565b60405180910390f35b6101b1610415565b6040516101be9190611705565b60405180910390f35b6101e160048036038101906101dc9190611080565b61041e565b6040516101ee919061154d565b60405180910390f35b610211600480360381019061020c9190610fcc565b6104c8565b60405161021e91906116ea565b60405180910390f35b610241600480360381019061023c9190610fcc565b6104e6565b60405161024e91906116ea565b60405180910390f35b61025f61052e565b60405161026c9190611568565b60405180910390f35b61028f600480360381019061028a91906110bc565b6105c0565b005b6102ab60048036038101906102a69190611080565b6107ae565b6040516102b8919061154d565b60405180910390f35b6102db60048036038101906102d69190611080565b610898565b6040516102e8919061154d565b60405180910390f35b61030b60048036038101906103069190610ff5565b6108bb565b60405161031891906116ea565b60405180910390f35b60055481565b6060600380546103369061181a565b80601f01602080910402602001604051908101604052809291908181526020018280546103629061181a565b80156103af5780601f10610384576101008083540402835291602001916103af565b820191906000526020600020905b81548152906001019060200180831161039257829003601f168201915b5050505050905090565b6000806103c4610942565b90506103d181858561094a565b600191505092915050565b6000600254905090565b6000806103f1610942565b90506103fe858285610b15565b610409858585610ba1565b60019150509392505050565b60006012905090565b600080610429610942565b90506104bd818585600160008673ffffffffffffffffffffffffffffffffffffffff1673ffffffffffffffffffffffffffffffffffffffff16815260200190815260200160002060008973ffffffffffffffffffffffffffffffffffffffff1673ffffffffffffffffffffffffffffffffffffffff168152602001908152602001600020546104b8919061173c565b61094a565b600191505092915050565b60066020528060005260406000206000915090508060000154905081565b60008060008373ffffffffffffffffffffffffffffffffffffffff1673ffffffffffffffffffffffffffffffffffffffff168152602001908152602001600020549050919050565b60606004805461053d9061181a565b80601f01602080910402602001604051908101604052809291908181526020018280546105699061181a565b80156105b65780601f1061058b576101008083540402835291602001916105b6565b820191906000526020600020905b81548152906001019060200180831161059957829003601f168201915b5050505050905090565b338168056bc75e2d6310000081111561060e576040517f08c379a0000000000000000000000000000000000000000000000000000000008152600401610605906115ea565b60405180910390fd5b68056bc75e2d6310000081600660008573ffffffffffffffffffffffffffffffffffffffff1673ffffffffffffffffffffffffffffffffffffffff16815260200190815260200160002060000154610666919061173c565b11156106a7576040517f08c379a000000000000000000000000000000000000000000000000000000000815260040161069e906115aa565b60405180910390fd5b826005546106c5826106b76103dc565b610e2290919063ffffffff16565b1115610706576040517f08c379a00000000000000000000000000000000000000000000000000000000081526004016106fd9061164a565b60405180910390fd5b6000600660003373ffffffffffffffffffffffffffffffffffffffff1673ffffffffffffffffffffffffffffffffffffffff16815260200190815260200160002090508481600001600082825461075d919061173c565b9250508190555061076e3386610e38565b7f0f6798a560793a54c3bcfe86a93cde1e73087d944c0ea20544137d4121396885338660405161079f929190611524565b60405180910390a15050505050565b6000806107b9610942565b90506000600160008373ffffffffffffffffffffffffffffffffffffffff1673ffffffffffffffffffffffffffffffffffffffff16815260200190815260200160002060008673ffffffffffffffffffffffffffffffffffffffff1673ffffffffffffffffffffffffffffffffffffffff1681526020019081526020016000205490508381101561087f576040517f08c379a0000000000000000000000000000000000000000000000000000000008152600401610876906116aa565b60405180910390fd5b61088c828686840361094a565b60019250505092915050565b6000806108a3610942565b90506108b0818585610ba1565b600191505092915050565b6000600160008473ffffffffffffffffffffffffffffffffffffffff1673ffffffffffffffffffffffffffffffffffffffff16815260200190815260200160002060008373ffffffffffffffffffffffffffffffffffffffff1673ffffffffffffffffffffffffffffffffffffffff16815260200190815260200160002054905092915050565b600033905090565b600073ffffffffffffffffffffffffffffffffffffffff168373ffffffffffffffffffffffffffffffffffffffff1614156109ba576040517f08c379a00000000000000000000000000000000000000000000000000000000081526004016109b19061168a565b60405180910390fd5b600073ffffffffffffffffffffffffffffffffffffffff168273ffffffffffffffffffffffffffffffffffffffff161415610a2a576040517f08c379a0000000000000000000000000000000000000000000000000000000008152600401610a21906115ca565b60405180910390fd5b80600160008573ffffffffffffffffffffffffffffffffffffffff1673ffffffffffffffffffffffffffffffffffffffff16815260200190815260200160002060008473ffffffffffffffffffffffffffffffffffffffff1673ffffffffffffffffffffffffffffffffffffffff168152602001908152602001600020819055508173ffffffffffffffffffffffffffffffffffffffff168373ffffffffffffffffffffffffffffffffffffffff167f8c5be1e5ebec7d5bd14f71427d1e84f3dd0314c0f7b2291e5b200ac8c7c3b92583604051610b0891906116ea565b60405180910390a3505050565b6000610b2184846108bb565b90507fffffffffffffffffffffffffffffffffffffffffffffffffffffffffffffffff8114610b9b5781811015610b8d576040517f08c379a0000000000000000000000000000000000000000000000000000000008152600401610b849061160a565b60405180910390fd5b610b9a848484840361094a565b5b50505050565b600073ffffffffffffffffffffffffffffffffffffffff168373ffffffffffffffffffffffffffffffffffffffff161415610c11576040517f08c379a0000000000000000000000000000000000000000000000000000000008152600401610c089061166a565b60405180910390fd5b600073ffffffffffffffffffffffffffffffffffffffff168273ffffffffffffffffffffffffffffffffffffffff161415610c81576040517f08c379a0000000000000000000000000000000000000000000000000000000008152600401610c789061158a565b60405180910390fd5b610c8c838383610f98565b60008060008573ffffffffffffffffffffffffffffffffffffffff1673ffffffffffffffffffffffffffffffffffffffff16815260200190815260200160002054905081811015610d12576040517f08c379a0000000000000000000000000000000000000000000000000000000008152600401610d099061162a565b60405180910390fd5b8181036000808673ffffffffffffffffffffffffffffffffffffffff1673ffffffffffffffffffffffffffffffffffffffff16815260200190815260200160002081905550816000808573ffffffffffffffffffffffffffffffffffffffff1673ffffffffffffffffffffffffffffffffffffffff1681526020019081526020016000206000828254610da5919061173c565b925050819055508273ffffffffffffffffffffffffffffffffffffffff168473ffffffffffffffffffffffffffffffffffffffff167fddf252ad1be2c89b69c2b068fc378daa952ba7f163c4a11628f55a4df523b3ef84604051610e0991906116ea565b60405180910390a3610e1c848484610f9d565b50505050565b60008183610e30919061173c565b905092915050565b600073ffffffffffffffffffffffffffffffffffffffff168273ffffffffffffffffffffffffffffffffffffffff161415610ea8576040517f08c379a0000000000000000000000000000000000000000000000000000000008152600401610e9f906116ca565b60405180910390fd5b610eb460008383610f98565b8060026000828254610ec6919061173c565b92505081905550806000808473ffffffffffffffffffffffffffffffffffffffff1673ffffffffffffffffffffffffffffffffffffffff1681526020019081526020016000206000828254610f1b919061173c565b925050819055508173ffffffffffffffffffffffffffffffffffffffff16600073ffffffffffffffffffffffffffffffffffffffff167fddf252ad1be2c89b69c2b068fc378daa952ba7f163c4a11628f55a4df523b3ef83604051610f8091906116ea565b60405180910390a3610f9460008383610f9d565b5050565b505050565b505050565b600081359050610fb1816118bb565b92915050565b600081359050610fc6816118d2565b92915050565b600060208284031215610fde57600080fd5b6000610fec84828501610fa2565b91505092915050565b6000806040838503121561100857600080fd5b600061101685828601610fa2565b925050602061102785828601610fa2565b9150509250929050565b60008060006060848603121561104657600080fd5b600061105486828701610fa2565b935050602061106586828701610fa2565b925050604061107686828701610fb7565b9150509250925092565b6000806040838503121561109357600080fd5b60006110a185828601610fa2565b92505060206110b285828601610fb7565b9150509250929050565b6000602082840312156110ce57600080fd5b60006110dc84828501610fb7565b91505092915050565b6110ee81611792565b82525050565b6110fd816117a4565b82525050565b600061110e82611720565b611118818561172b565b93506111288185602086016117e7565b611131816118aa565b840191505092915050565b600061114960238361172b565b91507f45524332303a207472616e7366657220746f20746865207a65726f206164647260008301527f65737300000000000000000000000000000000000000000000000000000000006020830152604082019050919050565b60006111af601a8361172b565b91507f4d696e74696e67204f76657220496e6469766975616c204361700000000000006000830152602082019050919050565b60006111ef60228361172b565b91507f45524332303a20617070726f766520746f20746865207a65726f20616464726560008301527f73730000000000000000000000000000000000000000000000000000000000006020830152604082019050919050565b600061125560278361172b565b91507f53706563696669656420416d6f756e742047726561746572205468616e20313060008301527f30206574686572000000000000000000000000000000000000000000000000006020830152604082019050919050565b60006112bb601d8361172b565b91507f45524332303a20696e73756666696369656e7420616c6c6f77616e63650000006000830152602082019050919050565b60006112fb60268361172b565b91507f45524332303a207472616e7366657220616d6f756e742065786365656473206260008301527f616c616e636500000000000000000000000000000000000000000000000000006020830152604082019050919050565b6000611361600f8361172b565b91507f537570706c79204f766572666c6f7700000000000000000000000000000000006000830152602082019050919050565b60006113a160258361172b565b91507f45524332303a207472616e736665722066726f6d20746865207a65726f20616460008301527f64726573730000000000000000000000000000000000000000000000000000006020830152604082019050919050565b600061140760248361172b565b91507f45524332303a20617070726f76652066726f6d20746865207a65726f2061646460008301527f72657373000000000000000000000000000000000000000000000000000000006020830152604082019050919050565b600061146d60258361172b565b91507f45524332303a2064656372656173656420616c6c6f77616e63652062656c6f7760008301527f207a65726f0000000000000000000000000000000000000000000000000000006020830152604082019050919050565b60006114d3601f8361172b565b91507f45524332303a206d696e7420746f20746865207a65726f2061646472657373006000830152602082019050919050565b61150f816117d0565b82525050565b61151e816117da565b82525050565b600060408201905061153960008301856110e5565b6115466020830184611506565b9392505050565b600060208201905061156260008301846110f4565b92915050565b600060208201905081810360008301526115828184611103565b905092915050565b600060208201905081810360008301526115a38161113c565b9050919050565b600060208201905081810360008301526115c3816111a2565b9050919050565b600060208201905081810360008301526115e3816111e2565b9050919050565b6000602082019050818103600083015261160381611248565b9050919050565b60006020820190508181036000830152611623816112ae565b9050919050565b60006020820190508181036000830152611643816112ee565b9050919050565b6000602082019050818103600083015261166381611354565b9050919050565b6000602082019050818103600083015261168381611394565b9050919050565b600060208201905081810360008301526116a3816113fa565b9050919050565b600060208201905081810360008301526116c381611460565b9050919050565b600060208201905081810360008301526116e3816114c6565b9050919050565b60006020820190506116ff6000830184611506565b92915050565b600060208201905061171a6000830184611515565b92915050565b600081519050919050565b600082825260208201905092915050565b6000611747826117d0565b9150611752836117d0565b9250827fffffffffffffffffffffffffffffffffffffffffffffffffffffffffffffffff038211156117875761178661184c565b5b828201905092915050565b600061179d826117b0565b9050919050565b60008115159050919050565b600073ffffffffffffffffffffffffffffffffffffffff82169050919050565b6000819050919050565b600060ff82169050919050565b60005b838110156118055780820151818401526020810190506117ea565b83811115611814576000848401525b50505050565b6000600282049050600182168061183257607f821691505b602082108114156118465761184561187b565b5b50919050565b7f4e487b7100000000000000000000000000000000000000000000000000000000600052601160045260246000fd5b7f4e487b7100000000000000000000000000000000000000000000000000000000600052602260045260246000fd5b6000601f19601f8301169050919050565b6118c481611792565b81146118cf57600080fd5b50565b6118db816117d0565b81146118e657600080fd5b5056fea2646970667358221220e7dbc672cfb8978f71a2776b2f1c568d94de8d5d85b9369d060d6157afbd47ed64736f6c63430008000033",
  "immutableReferences": {},
  "source": "// SPDX-License-Identifier: MIT\npragma solidity ^0.8.0;\n\nimport \"@openzeppelin/contracts/token/ERC20/ERC20.sol\";\nimport \"@openzeppelin/contracts/utils/math/SafeMath.sol\";\n\ncontract GenesisToken is ERC20 {\n\n    using SafeMath for uint256;\n    uint256 public supply = 1000 ether;\n    \n    struct MintInfo{\n    uint256 mintedAmount;\n    }\n\n    mapping(address => MintInfo) public mintInfo;\n\n    event Mint(address _recipent, uint256 _amount);\n    event SetMinter(address _minter);\n\n    constructor(\n        \n\n    ) ERC20(\"GENESIS COMMUNITY\", \"GCSHM\") {\n\n    }\n\n        modifier checkSupply(uint256 _amount) {\n        require(totalSupply().add(_amount) <= supply, \"Supply Overflow\");\n        \n        _;\n    }\n\n            modifier checkMinted(address _minter, uint256 _amount) {\n            require(_amount<=100 * 1e18,\"Specified Amount Greater Than 100 ether\");\n            require(mintInfo[_minter].mintedAmount+_amount<=100 * 1e18, \"Minting Over Indiviual Cap\");\n        \n        _;\n    }\n\n    function mintTokens(uint256 _amount) external checkMinted(msg.sender,_amount) checkSupply(_amount) {\n        MintInfo storage mint = mintInfo[msg.sender];\n        mint.mintedAmount += _amount;\n        _mint(msg.sender, _amount);\n\n        emit Mint(msg.sender, _amount);\n    }\n\n\n\n}",
  "sourcePath": "/Users/personal/Documents/ factory example/contracts/testToken.sol",
  "compiler": {
    "name": "solc",
    "version": "0.8.0+commit.c7dfd78e.Emscripten.clang"
  },
  "schemaVersion": "3.4.1",
  "updatedAt": "2022-05-05T18:37:35.737Z",
  "networkType": "ethereum",
  "devdoc": {
    "kind": "dev",
    "methods": {
      "allowance(address,address)": {
        "details": "See {IERC20-allowance}."
      },
      "approve(address,uint256)": {
        "details": "See {IERC20-approve}. NOTE: If `amount` is the maximum `uint256`, the allowance is not updated on `transferFrom`. This is semantically equivalent to an infinite approval. Requirements: - `spender` cannot be the zero address."
      },
      "balanceOf(address)": {
        "details": "See {IERC20-balanceOf}."
      },
      "decimals()": {
        "details": "Returns the number of decimals used to get its user representation. For example, if `decimals` equals `2`, a balance of `505` tokens should be displayed to a user as `5.05` (`505 / 10 ** 2`). Tokens usually opt for a value of 18, imitating the relationship between Ether and Wei. This is the value {ERC20} uses, unless this function is overridden; NOTE: This information is only used for _display_ purposes: it in no way affects any of the arithmetic of the contract, including {IERC20-balanceOf} and {IERC20-transfer}."
      },
      "decreaseAllowance(address,uint256)": {
        "details": "Atomically decreases the allowance granted to `spender` by the caller. This is an alternative to {approve} that can be used as a mitigation for problems described in {IERC20-approve}. Emits an {Approval} event indicating the updated allowance. Requirements: - `spender` cannot be the zero address. - `spender` must have allowance for the caller of at least `subtractedValue`."
      },
      "increaseAllowance(address,uint256)": {
        "details": "Atomically increases the allowance granted to `spender` by the caller. This is an alternative to {approve} that can be used as a mitigation for problems described in {IERC20-approve}. Emits an {Approval} event indicating the updated allowance. Requirements: - `spender` cannot be the zero address."
      },
      "name()": {
        "details": "Returns the name of the token."
      },
      "symbol()": {
        "details": "Returns the symbol of the token, usually a shorter version of the name."
      },
      "totalSupply()": {
        "details": "See {IERC20-totalSupply}."
      },
      "transfer(address,uint256)": {
        "details": "See {IERC20-transfer}. Requirements: - `to` cannot be the zero address. - the caller must have a balance of at least `amount`."
      },
      "transferFrom(address,address,uint256)": {
        "details": "See {IERC20-transferFrom}. Emits an {Approval} event indicating the updated allowance. This is not required by the EIP. See the note at the beginning of {ERC20}. NOTE: Does not update the allowance if the current allowance is the maximum `uint256`. Requirements: - `from` and `to` cannot be the zero address. - `from` must have a balance of at least `amount`. - the caller must have allowance for ``from``'s tokens of at least `amount`."
      }
    },
    "version": 1
  },
  "userdoc": {
    "kind": "user",
    "methods": {},
    "version": 1
  }
}