{
  "contractName": "TokenContract",
  "abi": [
    {
      "inputs": [
        {
          "internalType": "string",
          "name": "_name",
          "type": "string"
        },
        {
          "internalType": "string",
          "name": "_symbol",
          "type": "string"
        },
        {
          "internalType": "uint256",
          "name": "_supply",
          "type": "uint256"
        },
        {
          "internalType": "address",
          "name": "_minter",
          "type": "address"
        }
      ],
      "stateMutability": "nonpayable",
      "type": "constructor"
    },
    {
      "anonymous": false,
      "inputs": [
        {
          "indexed": true,
          "internalType": "address",
          "name": "owner",
          "type": "address"
        },
        {
          "indexed": true,
          "internalType": "address",
          "name": "spender",
          "type": "address"
        },
        {
          "indexed": false,
          "internalType": "uint256",
          "name": "value",
          "type": "uint256"
        }
      ],
      "name": "Approval",
      "type": "event"
    },
    {
      "anonymous": false,
      "inputs": [
        {
          "indexed": false,
          "internalType": "address",
          "name": "_recipent",
          "type": "address"
        },
        {
          "indexed": false,
          "internalType": "uint256",
          "name": "_amount",
          "type": "uint256"
        }
      ],
      "name": "Mint",
      "type": "event"
    },
    {
      "anonymous": false,
      "inputs": [
        {
          "indexed": false,
          "internalType": "address",
          "name": "_minter",
          "type": "address"
        }
      ],
      "name": "SetMinter",
      "type": "event"
    },
    {
      "anonymous": false,
      "inputs": [
        {
          "indexed": true,
          "internalType": "address",
          "name": "from",
          "type": "address"
        },
        {
          "indexed": true,
          "internalType": "address",
          "name": "to",
          "type": "address"
        },
        {
          "indexed": false,
          "internalType": "uint256",
          "name": "value",
          "type": "uint256"
        }
      ],
      "name": "Transfer",
      "type": "event"
    },
    {
      "inputs": [
        {
          "internalType": "address",
          "name": "owner",
          "type": "address"
        },
        {
          "internalType": "address",
          "name": "spender",
          "type": "address"
        }
      ],
      "name": "allowance",
      "outputs": [
        {
          "internalType": "uint256",
          "name": "",
          "type": "uint256"
        }
      ],
      "stateMutability": "view",
      "type": "function"
    },
    {
      "inputs": [
        {
          "internalType": "address",
          "name": "spender",
          "type": "address"
        },
        {
          "internalType": "uint256",
          "name": "amount",
          "type": "uint256"
        }
      ],
      "name": "approve",
      "outputs": [
        {
          "internalType": "bool",
          "name": "",
          "type": "bool"
        }
      ],
      "stateMutability": "nonpayable",
      "type": "function"
    },
    {
      "inputs": [
        {
          "internalType": "address",
          "name": "account",
          "type": "address"
        }
      ],
      "name": "balanceOf",
      "outputs": [
        {
          "internalType": "uint256",
          "name": "",
          "type": "uint256"
        }
      ],
      "stateMutability": "view",
      "type": "function"
    },
    {
      "inputs": [],
      "name": "decimals",
      "outputs": [
        {
          "internalType": "uint8",
          "name": "",
          "type": "uint8"
        }
      ],
      "stateMutability": "view",
      "type": "function"
    },
    {
      "inputs": [
        {
          "internalType": "address",
          "name": "spender",
          "type": "address"
        },
        {
          "internalType": "uint256",
          "name": "subtractedValue",
          "type": "uint256"
        }
      ],
      "name": "decreaseAllowance",
      "outputs": [
        {
          "internalType": "bool",
          "name": "",
          "type": "bool"
        }
      ],
      "stateMutability": "nonpayable",
      "type": "function"
    },
    {
      "inputs": [
        {
          "internalType": "address",
          "name": "spender",
          "type": "address"
        },
        {
          "internalType": "uint256",
          "name": "addedValue",
          "type": "uint256"
        }
      ],
      "name": "increaseAllowance",
      "outputs": [
        {
          "internalType": "bool",
          "name": "",
          "type": "bool"
        }
      ],
      "stateMutability": "nonpayable",
      "type": "function"
    },
    {
      "inputs": [],
      "name": "minter",
      "outputs": [
        {
          "internalType": "address",
          "name": "",
          "type": "address"
        }
      ],
      "stateMutability": "view",
      "type": "function"
    },
    {
      "inputs": [],
      "name": "name",
      "outputs": [
        {
          "internalType": "string",
          "name": "",
          "type": "string"
        }
      ],
      "stateMutability": "view",
      "type": "function"
    },
    {
      "inputs": [],
      "name": "supply",
      "outputs": [
        {
          "internalType": "uint256",
          "name": "",
          "type": "uint256"
        }
      ],
      "stateMutability": "view",
      "type": "function"
    },
    {
      "inputs": [],
      "name": "symbol",
      "outputs": [
        {
          "internalType": "string",
          "name": "",
          "type": "string"
        }
      ],
      "stateMutability": "view",
      "type": "function"
    },
    {
      "inputs": [],
      "name": "totalSupply",
      "outputs": [
        {
          "internalType": "uint256",
          "name": "",
          "type": "uint256"
        }
      ],
      "stateMutability": "view",
      "type": "function"
    },
    {
      "inputs": [
        {
          "internalType": "address",
          "name": "to",
          "type": "address"
        },
        {
          "internalType": "uint256",
          "name": "amount",
          "type": "uint256"
        }
      ],
      "name": "transfer",
      "outputs": [
        {
          "internalType": "bool",
          "name": "",
          "type": "bool"
        }
      ],
      "stateMutability": "nonpayable",
      "type": "function"
    },
    {
      "inputs": [
        {
          "internalType": "address",
          "name": "from",
          "type": "address"
        },
        {
          "internalType": "address",
          "name": "to",
          "type": "address"
        },
        {
          "internalType": "uint256",
          "name": "amount",
          "type": "uint256"
        }
      ],
      "name": "transferFrom",
      "outputs": [
        {
          "internalType": "bool",
          "name": "",
          "type": "bool"
        }
      ],
      "stateMutability": "nonpayable",
      "type": "function"
    },
    {
      "inputs": [
        {
          "internalType": "uint256",
          "name": "_amount",
          "type": "uint256"
        }
      ],
      "name": "mintTokens",
      "outputs": [],
      "stateMutability": "nonpayable",
      "type": "function"
    },
    {
      "inputs": [
        {
          "internalType": "address",
          "name": "_minter",
          "type": "address"
        }
      ],
      "name": "setMinter",
      "outputs": [],
      "stateMutability": "nonpayable",
      "type": "function"
    }
  ],
  "bytecode": "0x60806040523480156200001157600080fd5b5060405162001d8438038062001d8483398181016040528101906200003791906200020f565b8383816003908051906020019062000051929190620000bf565b5080600490805190602001906200006a929190620000bf565b5050508160068190555080600560006101000a81548173ffffffffffffffffffffffffffffffffffffffff021916908373ffffffffffffffffffffffffffffffffffffffff1602179055505050505062000450565b828054620000cd9062000388565b90600052602060002090601f016020900481019282620000f157600085556200013d565b82601f106200010c57805160ff19168380011785556200013d565b828001600101855582156200013d579182015b828111156200013c5782518255916020019190600101906200011f565b5b5090506200014c919062000150565b5090565b5b808211156200016b57600081600090555060010162000151565b5090565b6000620001866200018084620002e1565b620002ad565b9050828152602081018484840111156200019f57600080fd5b620001ac84828562000352565b509392505050565b600081519050620001c5816200041c565b92915050565b600082601f830112620001dd57600080fd5b8151620001ef8482602086016200016f565b91505092915050565b600081519050620002098162000436565b92915050565b600080600080608085870312156200022657600080fd5b600085015167ffffffffffffffff8111156200024157600080fd5b6200024f87828801620001cb565b945050602085015167ffffffffffffffff8111156200026d57600080fd5b6200027b87828801620001cb565b93505060406200028e87828801620001f8565b9250506060620002a187828801620001b4565b91505092959194509250565b6000604051905081810181811067ffffffffffffffff82111715620002d757620002d6620003ed565b5b8060405250919050565b600067ffffffffffffffff821115620002ff57620002fe620003ed565b5b601f19601f8301169050602081019050919050565b6000620003218262000328565b9050919050565b600073ffffffffffffffffffffffffffffffffffffffff82169050919050565b6000819050919050565b60005b838110156200037257808201518184015260208101905062000355565b8381111562000382576000848401525b50505050565b60006002820490506001821680620003a157607f821691505b60208210811415620003b857620003b7620003be565b5b50919050565b7f4e487b7100000000000000000000000000000000000000000000000000000000600052602260045260246000fd5b7f4e487b7100000000000000000000000000000000000000000000000000000000600052604160045260246000fd5b620004278162000314565b81146200043357600080fd5b50565b620004418162000348565b81146200044d57600080fd5b50565b61192480620004606000396000f3fe608060405234801561001057600080fd5b50600436106100f55760003560e01c80633950935111610097578063a457c2d711610066578063a457c2d71461028a578063a9059cbb146102ba578063dd62ed3e146102ea578063fca3b5aa1461031a576100f5565b806339509351146101f057806370a082311461022057806395d89b411461025057806397304ced1461026e576100f5565b8063095ea7b3116100d3578063095ea7b31461015457806318160ddd1461018457806323b872dd146101a2578063313ce567146101d2576100f5565b8063047fc9aa146100fa57806306fdde03146101185780630754617214610136575b600080fd5b610102610336565b60405161010f91906116ef565b60405180910390f35b61012061033c565b60405161012d919061158d565b60405180910390f35b61013e6103ce565b60405161014b919061152e565b60405180910390f35b61016e600480360381019061016991906110f0565b6103f4565b60405161017b9190611572565b60405180910390f35b61018c610417565b60405161019991906116ef565b60405180910390f35b6101bc60048036038101906101b791906110a1565b610421565b6040516101c99190611572565b60405180910390f35b6101da610450565b6040516101e7919061170a565b60405180910390f35b61020a600480360381019061020591906110f0565b610459565b6040516102179190611572565b60405180910390f35b61023a6004803603810190610235919061103c565b610503565b60405161024791906116ef565b60405180910390f35b61025861054b565b604051610265919061158d565b60405180910390f35b6102886004803603810190610283919061112c565b6105dd565b005b6102a4600480360381019061029f91906110f0565b610713565b6040516102b19190611572565b60405180910390f35b6102d460048036038101906102cf91906110f0565b6107fd565b6040516102e19190611572565b60405180910390f35b61030460048036038101906102ff9190611065565b610820565b60405161031191906116ef565b60405180910390f35b610334600480360381019061032f919061103c565b6108a7565b005b60065481565b60606003805461034b9061181f565b80601f01602080910402602001604051908101604052809291908181526020018280546103779061181f565b80156103c45780601f10610399576101008083540402835291602001916103c4565b820191906000526020600020905b8154815290600101906020018083116103a757829003601f168201915b5050505050905090565b600560009054906101000a900473ffffffffffffffffffffffffffffffffffffffff1681565b6000806103ff6109b2565b905061040c8185856109ba565b600191505092915050565b6000600254905090565b60008061042c6109b2565b9050610439858285610b85565b610444858585610c11565b60019150509392505050565b60006012905090565b6000806104646109b2565b90506104f8818585600160008673ffffffffffffffffffffffffffffffffffffffff1673ffffffffffffffffffffffffffffffffffffffff16815260200190815260200160002060008973ffffffffffffffffffffffffffffffffffffffff1673ffffffffffffffffffffffffffffffffffffffff168152602001908152602001600020546104f39190611741565b6109ba565b600191505092915050565b60008060008373ffffffffffffffffffffffffffffffffffffffff1673ffffffffffffffffffffffffffffffffffffffff168152602001908152602001600020549050919050565b60606004805461055a9061181f565b80601f01602080910402602001604051908101604052809291908181526020018280546105869061181f565b80156105d35780601f106105a8576101008083540402835291602001916105d3565b820191906000526020600020905b8154815290600101906020018083116105b657829003601f168201915b5050505050905090565b600560009054906101000a900473ffffffffffffffffffffffffffffffffffffffff1673ffffffffffffffffffffffffffffffffffffffff163373ffffffffffffffffffffffffffffffffffffffff161461066d576040517f08c379a00000000000000000000000000000000000000000000000000000000081526004016106649061168f565b60405180910390fd5b8060065461068b8261067d610417565b610e9290919063ffffffff16565b11156106cc576040517f08c379a00000000000000000000000000000000000000000000000000000000081526004016106c39061162f565b60405180910390fd5b6106d63383610ea8565b7f0f6798a560793a54c3bcfe86a93cde1e73087d944c0ea20544137d41213968853383604051610707929190611549565b60405180910390a15050565b60008061071e6109b2565b90506000600160008373ffffffffffffffffffffffffffffffffffffffff1673ffffffffffffffffffffffffffffffffffffffff16815260200190815260200160002060008673ffffffffffffffffffffffffffffffffffffffff1673ffffffffffffffffffffffffffffffffffffffff168152602001908152602001600020549050838110156107e4576040517f08c379a00000000000000000000000000000000000000000000000000000000081526004016107db906116af565b60405180910390fd5b6107f182868684036109ba565b60019250505092915050565b6000806108086109b2565b9050610815818585610c11565b600191505092915050565b6000600160008473ffffffffffffffffffffffffffffffffffffffff1673ffffffffffffffffffffffffffffffffffffffff16815260200190815260200160002060008373ffffffffffffffffffffffffffffffffffffffff1673ffffffffffffffffffffffffffffffffffffffff16815260200190815260200160002054905092915050565b600560009054906101000a900473ffffffffffffffffffffffffffffffffffffffff1673ffffffffffffffffffffffffffffffffffffffff163373ffffffffffffffffffffffffffffffffffffffff1614610937576040517f08c379a000000000000000000000000000000000000000000000000000000000815260040161092e9061168f565b60405180910390fd5b80600560006101000a81548173ffffffffffffffffffffffffffffffffffffffff021916908373ffffffffffffffffffffffffffffffffffffffff1602179055507fcec52196e972044edde8689a1b608e459c5946b7f3e5c8cd3d6d8e126d422e1c816040516109a7919061152e565b60405180910390a150565b600033905090565b600073ffffffffffffffffffffffffffffffffffffffff168373ffffffffffffffffffffffffffffffffffffffff161415610a2a576040517f08c379a0000000000000000000000000000000000000000000000000000000008152600401610a219061166f565b60405180910390fd5b600073ffffffffffffffffffffffffffffffffffffffff168273ffffffffffffffffffffffffffffffffffffffff161415610a9a576040517f08c379a0000000000000000000000000000000000000000000000000000000008152600401610a91906115cf565b60405180910390fd5b80600160008573ffffffffffffffffffffffffffffffffffffffff1673ffffffffffffffffffffffffffffffffffffffff16815260200190815260200160002060008473ffffffffffffffffffffffffffffffffffffffff1673ffffffffffffffffffffffffffffffffffffffff168152602001908152602001600020819055508173ffffffffffffffffffffffffffffffffffffffff168373ffffffffffffffffffffffffffffffffffffffff167f8c5be1e5ebec7d5bd14f71427d1e84f3dd0314c0f7b2291e5b200ac8c7c3b92583604051610b7891906116ef565b60405180910390a3505050565b6000610b918484610820565b90507fffffffffffffffffffffffffffffffffffffffffffffffffffffffffffffffff8114610c0b5781811015610bfd576040517f08c379a0000000000000000000000000000000000000000000000000000000008152600401610bf4906115ef565b60405180910390fd5b610c0a84848484036109ba565b5b50505050565b600073ffffffffffffffffffffffffffffffffffffffff168373ffffffffffffffffffffffffffffffffffffffff161415610c81576040517f08c379a0000000000000000000000000000000000000000000000000000000008152600401610c789061164f565b60405180910390fd5b600073ffffffffffffffffffffffffffffffffffffffff168273ffffffffffffffffffffffffffffffffffffffff161415610cf1576040517f08c379a0000000000000000000000000000000000000000000000000000000008152600401610ce8906115af565b60405180910390fd5b610cfc838383611008565b60008060008573ffffffffffffffffffffffffffffffffffffffff1673ffffffffffffffffffffffffffffffffffffffff16815260200190815260200160002054905081811015610d82576040517f08c379a0000000000000000000000000000000000000000000000000000000008152600401610d799061160f565b60405180910390fd5b8181036000808673ffffffffffffffffffffffffffffffffffffffff1673ffffffffffffffffffffffffffffffffffffffff16815260200190815260200160002081905550816000808573ffffffffffffffffffffffffffffffffffffffff1673ffffffffffffffffffffffffffffffffffffffff1681526020019081526020016000206000828254610e159190611741565b925050819055508273ffffffffffffffffffffffffffffffffffffffff168473ffffffffffffffffffffffffffffffffffffffff167fddf252ad1be2c89b69c2b068fc378daa952ba7f163c4a11628f55a4df523b3ef84604051610e7991906116ef565b60405180910390a3610e8c84848461100d565b50505050565b60008183610ea09190611741565b905092915050565b600073ffffffffffffffffffffffffffffffffffffffff168273ffffffffffffffffffffffffffffffffffffffff161415610f18576040517f08c379a0000000000000000000000000000000000000000000000000000000008152600401610f0f906116cf565b60405180910390fd5b610f2460008383611008565b8060026000828254610f369190611741565b92505081905550806000808473ffffffffffffffffffffffffffffffffffffffff1673ffffffffffffffffffffffffffffffffffffffff1681526020019081526020016000206000828254610f8b9190611741565b925050819055508173ffffffffffffffffffffffffffffffffffffffff16600073ffffffffffffffffffffffffffffffffffffffff167fddf252ad1be2c89b69c2b068fc378daa952ba7f163c4a11628f55a4df523b3ef83604051610ff091906116ef565b60405180910390a36110046000838361100d565b5050565b505050565b505050565b600081359050611021816118c0565b92915050565b600081359050611036816118d7565b92915050565b60006020828403121561104e57600080fd5b600061105c84828501611012565b91505092915050565b6000806040838503121561107857600080fd5b600061108685828601611012565b925050602061109785828601611012565b9150509250929050565b6000806000606084860312156110b657600080fd5b60006110c486828701611012565b93505060206110d586828701611012565b92505060406110e686828701611027565b9150509250925092565b6000806040838503121561110357600080fd5b600061111185828601611012565b925050602061112285828601611027565b9150509250929050565b60006020828403121561113e57600080fd5b600061114c84828501611027565b91505092915050565b61115e81611797565b82525050565b61116d816117a9565b82525050565b600061117e82611725565b6111888185611730565b93506111988185602086016117ec565b6111a1816118af565b840191505092915050565b60006111b9602383611730565b91507f45524332303a207472616e7366657220746f20746865207a65726f206164647260008301527f65737300000000000000000000000000000000000000000000000000000000006020830152604082019050919050565b600061121f602283611730565b91507f45524332303a20617070726f766520746f20746865207a65726f20616464726560008301527f73730000000000000000000000000000000000000000000000000000000000006020830152604082019050919050565b6000611285601d83611730565b91507f45524332303a20696e73756666696369656e7420616c6c6f77616e63650000006000830152602082019050919050565b60006112c5602683611730565b91507f45524332303a207472616e7366657220616d6f756e742065786365656473206260008301527f616c616e636500000000000000000000000000000000000000000000000000006020830152604082019050919050565b600061132b600f83611730565b91507f537570706c79204f766572666c6f7700000000000000000000000000000000006000830152602082019050919050565b600061136b602583611730565b91507f45524332303a207472616e736665722066726f6d20746865207a65726f20616460008301527f64726573730000000000000000000000000000000000000000000000000000006020830152604082019050919050565b60006113d1602483611730565b91507f45524332303a20617070726f76652066726f6d20746865207a65726f2061646460008301527f72657373000000000000000000000000000000000000000000000000000000006020830152604082019050919050565b6000611437600a83611730565b91507f4e6f74204d696e746572000000000000000000000000000000000000000000006000830152602082019050919050565b6000611477602583611730565b91507f45524332303a2064656372656173656420616c6c6f77616e63652062656c6f7760008301527f207a65726f0000000000000000000000000000000000000000000000000000006020830152604082019050919050565b60006114dd601f83611730565b91507f45524332303a206d696e7420746f20746865207a65726f2061646472657373006000830152602082019050919050565b611519816117d5565b82525050565b611528816117df565b82525050565b60006020820190506115436000830184611155565b92915050565b600060408201905061155e6000830185611155565b61156b6020830184611510565b9392505050565b60006020820190506115876000830184611164565b92915050565b600060208201905081810360008301526115a78184611173565b905092915050565b600060208201905081810360008301526115c8816111ac565b9050919050565b600060208201905081810360008301526115e881611212565b9050919050565b6000602082019050818103600083015261160881611278565b9050919050565b60006020820190508181036000830152611628816112b8565b9050919050565b600060208201905081810360008301526116488161131e565b9050919050565b600060208201905081810360008301526116688161135e565b9050919050565b60006020820190508181036000830152611688816113c4565b9050919050565b600060208201905081810360008301526116a88161142a565b9050919050565b600060208201905081810360008301526116c88161146a565b9050919050565b600060208201905081810360008301526116e8816114d0565b9050919050565b60006020820190506117046000830184611510565b92915050565b600060208201905061171f600083018461151f565b92915050565b600081519050919050565b600082825260208201905092915050565b600061174c826117d5565b9150611757836117d5565b9250827fffffffffffffffffffffffffffffffffffffffffffffffffffffffffffffffff0382111561178c5761178b611851565b5b828201905092915050565b60006117a2826117b5565b9050919050565b60008115159050919050565b600073ffffffffffffffffffffffffffffffffffffffff82169050919050565b6000819050919050565b600060ff82169050919050565b60005b8381101561180a5780820151818401526020810190506117ef565b83811115611819576000848401525b50505050565b6000600282049050600182168061183757607f821691505b6020821081141561184b5761184a611880565b5b50919050565b7f4e487b7100000000000000000000000000000000000000000000000000000000600052601160045260246000fd5b7f4e487b7100000000000000000000000000000000000000000000000000000000600052602260045260246000fd5b6000601f19601f8301169050919050565b6118c981611797565b81146118d457600080fd5b50565b6118e0816117d5565b81146118eb57600080fd5b5056fea26469706673582212206c259df69cf918efea6fe5ce6b5e8ea3612f7b583276ef53b387d16c3537ca2f64736f6c63430008000033",
  "immutableReferences": {},
  "source": "// SPDX-License-Identifier: MIT\npragma solidity ^0.8.0;\n\nimport \"@openzeppelin/contracts/token/ERC20/ERC20.sol\";\nimport \"@openzeppelin/contracts/utils/math/SafeMath.sol\";\n\ncontract TokenContract is ERC20 {\n\n    using SafeMath for uint256;\n\n    address public minter;\n    uint256 public supply;\n\n    event Mint(address _recipent, uint256 _amount);\n    event SetMinter(address _minter);\n\n    constructor(\n        string memory _name,\n        string memory _symbol,\n        uint256 _supply,\n        address _minter\n    ) ERC20(_name, _symbol) {\n        supply=_supply;\n        minter=_minter;\n\n    }\n\n         modifier onlyMinter() {\n        require(msg.sender == minter, \"Not Minter\");\n        \n        _;\n    }\n\n        modifier checkSupply(uint256 _amount) {\n        require(totalSupply().add(_amount) <= supply, \"Supply Overflow\");\n        \n        _;\n    }\n\n    function mintTokens(uint256 _amount) external onlyMinter() checkSupply(_amount) {\n        _mint(msg.sender, _amount);\n\n        emit Mint(msg.sender, _amount);\n    }\n\n\n\n    function setMinter(address _minter) external onlyMinter() {\n        minter=_minter;\n\n        emit SetMinter(_minter);\n    }\n\n\n}",
  "sourcePath": "/Users/personal/Documents/ factory example/contracts/Normal Token/TokenContract.sol",
  "compiler": {
    "name": "solc",
    "version": "0.8.0+commit.c7dfd78e.Emscripten.clang"
  },
  "schemaVersion": "3.4.1",
  "updatedAt": "2022-04-26T16:36:27.503Z",
  "devdoc": {
    "kind": "dev",
    "methods": {
      "allowance(address,address)": {
        "details": "See {IERC20-allowance}."
      },
      "approve(address,uint256)": {
        "details": "See {IERC20-approve}. NOTE: If `amount` is the maximum `uint256`, the allowance is not updated on `transferFrom`. This is semantically equivalent to an infinite approval. Requirements: - `spender` cannot be the zero address."
      },
      "balanceOf(address)": {
        "details": "See {IERC20-balanceOf}."
      },
      "decimals()": {
        "details": "Returns the number of decimals used to get its user representation. For example, if `decimals` equals `2`, a balance of `505` tokens should be displayed to a user as `5.05` (`505 / 10 ** 2`). Tokens usually opt for a value of 18, imitating the relationship between Ether and Wei. This is the value {ERC20} uses, unless this function is overridden; NOTE: This information is only used for _display_ purposes: it in no way affects any of the arithmetic of the contract, including {IERC20-balanceOf} and {IERC20-transfer}."
      },
      "decreaseAllowance(address,uint256)": {
        "details": "Atomically decreases the allowance granted to `spender` by the caller. This is an alternative to {approve} that can be used as a mitigation for problems described in {IERC20-approve}. Emits an {Approval} event indicating the updated allowance. Requirements: - `spender` cannot be the zero address. - `spender` must have allowance for the caller of at least `subtractedValue`."
      },
      "increaseAllowance(address,uint256)": {
        "details": "Atomically increases the allowance granted to `spender` by the caller. This is an alternative to {approve} that can be used as a mitigation for problems described in {IERC20-approve}. Emits an {Approval} event indicating the updated allowance. Requirements: - `spender` cannot be the zero address."
      },
      "name()": {
        "details": "Returns the name of the token."
      },
      "symbol()": {
        "details": "Returns the symbol of the token, usually a shorter version of the name."
      },
      "totalSupply()": {
        "details": "See {IERC20-totalSupply}."
      },
      "transfer(address,uint256)": {
        "details": "See {IERC20-transfer}. Requirements: - `to` cannot be the zero address. - the caller must have a balance of at least `amount`."
      },
      "transferFrom(address,address,uint256)": {
        "details": "See {IERC20-transferFrom}. Emits an {Approval} event indicating the updated allowance. This is not required by the EIP. See the note at the beginning of {ERC20}. NOTE: Does not update the allowance if the current allowance is the maximum `uint256`. Requirements: - `from` and `to` cannot be the zero address. - `from` must have a balance of at least `amount`. - the caller must have allowance for ``from``'s tokens of at least `amount`."
      }
    },
    "version": 1
  },
  "userdoc": {
    "kind": "user",
    "methods": {},
    "version": 1
  }
}