{
  "contractName": "TokenFactory",
  "abi": [
    {
      "inputs": [
        {
          "internalType": "address",
          "name": "_owner",
          "type": "address"
        }
      ],
      "stateMutability": "nonpayable",
      "type": "constructor"
    },
    {
      "anonymous": false,
      "inputs": [
        {
          "indexed": false,
          "internalType": "address",
          "name": "_owner",
          "type": "address"
        }
      ],
      "name": "SetOwner",
      "type": "event"
    },
    {
      "anonymous": false,
      "inputs": [
        {
          "indexed": false,
          "internalType": "uint256",
          "name": "payableAmt",
          "type": "uint256"
        }
      ],
      "name": "SetPayableFees",
      "type": "event"
    },
    {
      "anonymous": false,
      "inputs": [
        {
          "indexed": false,
          "internalType": "address",
          "name": "TokenAddress",
          "type": "address"
        }
      ],
      "name": "TokenCreated",
      "type": "event"
    },
    {
      "anonymous": false,
      "inputs": [
        {
          "indexed": false,
          "internalType": "address",
          "name": "sendTo",
          "type": "address"
        },
        {
          "indexed": false,
          "internalType": "uint256",
          "name": "Amt",
          "type": "uint256"
        }
      ],
      "name": "WithdrawFees",
      "type": "event"
    },
    {
      "inputs": [],
      "name": "owner",
      "outputs": [
        {
          "internalType": "address",
          "name": "",
          "type": "address"
        }
      ],
      "stateMutability": "view",
      "type": "function"
    },
    {
      "inputs": [],
      "name": "payableFees",
      "outputs": [
        {
          "internalType": "uint256",
          "name": "",
          "type": "uint256"
        }
      ],
      "stateMutability": "view",
      "type": "function"
    },
    {
      "inputs": [
        {
          "internalType": "address",
          "name": "",
          "type": "address"
        }
      ],
      "name": "tokenName",
      "outputs": [
        {
          "internalType": "string",
          "name": "",
          "type": "string"
        }
      ],
      "stateMutability": "view",
      "type": "function"
    },
    {
      "inputs": [
        {
          "internalType": "uint256",
          "name": "",
          "type": "uint256"
        }
      ],
      "name": "tokensCreated",
      "outputs": [
        {
          "internalType": "address",
          "name": "",
          "type": "address"
        }
      ],
      "stateMutability": "view",
      "type": "function"
    },
    {
      "inputs": [
        {
          "internalType": "string",
          "name": "_name",
          "type": "string"
        },
        {
          "internalType": "string",
          "name": "_symbol",
          "type": "string"
        },
        {
          "internalType": "uint256",
          "name": "_supply",
          "type": "uint256"
        },
        {
          "internalType": "address",
          "name": "_minter",
          "type": "address"
        }
      ],
      "name": "createToken",
      "outputs": [],
      "stateMutability": "payable",
      "type": "function"
    },
    {
      "inputs": [
        {
          "internalType": "address payable",
          "name": "_sendTo",
          "type": "address"
        }
      ],
      "name": "withdrawFees",
      "outputs": [],
      "stateMutability": "nonpayable",
      "type": "function"
    },
    {
      "inputs": [
        {
          "internalType": "uint256",
          "name": "_payableFees",
          "type": "uint256"
        }
      ],
      "name": "setPayableFees",
      "outputs": [],
      "stateMutability": "nonpayable",
      "type": "function"
    },
    {
      "inputs": [
        {
          "internalType": "address",
          "name": "_owner",
          "type": "address"
        }
      ],
      "name": "setOwner",
      "outputs": [],
      "stateMutability": "nonpayable",
      "type": "function"
    }
  ],
  "bytecode": "0x608060405267016345785d8a000060035534801561001c57600080fd5b5060405162002da038038062002da08339818101604052810190610040919061009c565b80600260006101000a81548173ffffffffffffffffffffffffffffffffffffffff021916908373ffffffffffffffffffffffffffffffffffffffff1602179055505061010e565b600081519050610096816100f7565b92915050565b6000602082840312156100ae57600080fd5b60006100bc84828501610087565b91505092915050565b60006100d0826100d7565b9050919050565b600073ffffffffffffffffffffffffffffffffffffffff82169050919050565b610100816100c5565b811461010b57600080fd5b50565b612c82806200011e6000396000f3fe608060405260043610620000865760003560e01c80638da5cb5b11620000555780638da5cb5b146200014b578063ae4664c3146200017b578063e54f752214620001ab578063ff243c8614620001ef5762000086565b806313af4035146200008b578063164e68de14620000b957806334f359f914620000e757806341abf5711462000107575b600080fd5b3480156200009857600080fd5b50620000b76004803603810190620000b191906200093b565b6200021d565b005b348015620000c657600080fd5b50620000e56004803603810190620000df919062000967565b6200032d565b005b620001056004803603810190620000ff919062000993565b62000446565b005b3480156200011457600080fd5b506200013360048036038101906200012d919062000a31565b620004a1565b60405162000142919062000b55565b60405180910390f35b3480156200015857600080fd5b5062000163620004e1565b60405162000172919062000b55565b60405180910390f35b3480156200018857600080fd5b506200019362000507565b604051620001a2919062000c62565b60405180910390f35b348015620001b857600080fd5b50620001d76004803603810190620001d191906200093b565b6200050d565b604051620001e6919062000b9f565b60405180910390f35b348015620001fc57600080fd5b506200021b600480360381019062000215919062000a31565b620005b5565b005b600260009054906101000a900473ffffffffffffffffffffffffffffffffffffffff1673ffffffffffffffffffffffffffffffffffffffff163373ffffffffffffffffffffffffffffffffffffffff1614620002b0576040517f08c379a0000000000000000000000000000000000000000000000000000000008152600401620002a79062000c40565b60405180910390fd5b80600260006101000a81548173ffffffffffffffffffffffffffffffffffffffff021916908373ffffffffffffffffffffffffffffffffffffffff1602179055507f167d3e9c1016ab80e58802ca9da10ce5c6a0f4debc46a2e7a2cd9e56899a4fb58160405162000322919062000b55565b60405180910390a150565b600260009054906101000a900473ffffffffffffffffffffffffffffffffffffffff1673ffffffffffffffffffffffffffffffffffffffff163373ffffffffffffffffffffffffffffffffffffffff1614620003c0576040517f08c379a0000000000000000000000000000000000000000000000000000000008152600401620003b79062000c40565b60405180910390fd5b7f9bba815921f12cb7b1408e14b5ade745234397d39623ae5e7c82d693cb45815f8147604051620003f392919062000b72565b60405180910390a18073ffffffffffffffffffffffffffffffffffffffff166108fc479081150290604051600060405180830381858888f1935050505015801562000442573d6000803e3d6000fd5b5050565b60035434146200048d576040517f08c379a0000000000000000000000000000000000000000000000000000000008152600401620004849062000c1e565b60405180910390fd5b6200049b848484846200068b565b50505050565b60018181548110620004b257600080fd5b906000526020600020016000915054906101000a900473ffffffffffffffffffffffffffffffffffffffff1681565b600260009054906101000a900473ffffffffffffffffffffffffffffffffffffffff1681565b60035481565b600060205280600052604060002060009150905080546200052e9062000dd5565b80601f01602080910402602001604051908101604052809291908181526020018280546200055c9062000dd5565b8015620005ad5780601f106200058157610100808354040283529160200191620005ad565b820191906000526020600020905b8154815290600101906020018083116200058f57829003601f168201915b505050505081565b600260009054906101000a900473ffffffffffffffffffffffffffffffffffffffff1673ffffffffffffffffffffffffffffffffffffffff163373ffffffffffffffffffffffffffffffffffffffff161462000648576040517f08c379a00000000000000000000000000000000000000000000000000000000081526004016200063f9062000c40565b60405180910390fd5b806003819055507f4e80ac48f131c93f321a40db01a41dba9bedf7e3a764c9eeef7d5553431bed058160405162000680919062000c62565b60405180910390a150565b6000848484846040516200069f90620007c6565b620006ae949392919062000bc3565b604051809103906000f080158015620006cb573d6000803e3d6000fd5b509050846000808373ffffffffffffffffffffffffffffffffffffffff1673ffffffffffffffffffffffffffffffffffffffff168152602001908152602001600020908051906020019062000722929190620007d4565b506001819080600181540180825580915050600190039060005260206000200160009091909190916101000a81548173ffffffffffffffffffffffffffffffffffffffff021916908373ffffffffffffffffffffffffffffffffffffffff1602179055507f2e2b3f61b70d2d131b2a807371103cc98d51adcaa5e9a8f9c32658ad8426e74e81604051620007b7919062000b55565b60405180910390a15050505050565b611d848062000ec983390190565b828054620007e29062000dd5565b90600052602060002090601f01602090048101928262000806576000855562000852565b82601f106200082157805160ff191683800117855562000852565b8280016001018555821562000852579182015b828111156200085157825182559160200191906001019062000834565b5b50905062000861919062000865565b5090565b5b808211156200088057600081600090555060010162000866565b5090565b60006200089b620008958462000cb3565b62000c7f565b905082815260208101848484011115620008b457600080fd5b620008c184828562000d90565b509392505050565b600081359050620008da8162000e7a565b92915050565b600081359050620008f18162000e94565b92915050565b600082601f8301126200090957600080fd5b81356200091b84826020860162000884565b91505092915050565b600081359050620009358162000eae565b92915050565b6000602082840312156200094e57600080fd5b60006200095e84828501620008c9565b91505092915050565b6000602082840312156200097a57600080fd5b60006200098a84828501620008e0565b91505092915050565b60008060008060808587031215620009aa57600080fd5b600085013567ffffffffffffffff811115620009c557600080fd5b620009d387828801620008f7565b945050602085013567ffffffffffffffff811115620009f157600080fd5b620009ff87828801620008f7565b935050604062000a128782880162000924565b925050606062000a2587828801620008c9565b91505092959194509250565b60006020828403121562000a4457600080fd5b600062000a548482850162000924565b91505092915050565b62000a688162000d54565b82525050565b62000a798162000d02565b82525050565b600062000a8c8262000ce6565b62000a98818562000cf1565b935062000aaa81856020860162000d9f565b62000ab58162000e69565b840191505092915050565b600062000acf600e8362000cf1565b91507f496e76616c696420416d6f756e740000000000000000000000000000000000006000830152602082019050919050565b600062000b1160098362000cf1565b91507f4e6f74204f776e657200000000000000000000000000000000000000000000006000830152602082019050919050565b62000b4f8162000d4a565b82525050565b600060208201905062000b6c600083018462000a6e565b92915050565b600060408201905062000b89600083018562000a5d565b62000b98602083018462000b44565b9392505050565b6000602082019050818103600083015262000bbb818462000a7f565b905092915050565b6000608082019050818103600083015262000bdf818762000a7f565b9050818103602083015262000bf5818662000a7f565b905062000c06604083018562000b44565b62000c15606083018462000a6e565b95945050505050565b6000602082019050818103600083015262000c398162000ac0565b9050919050565b6000602082019050818103600083015262000c5b8162000b02565b9050919050565b600060208201905062000c79600083018462000b44565b92915050565b6000604051905081810181811067ffffffffffffffff8211171562000ca95762000ca862000e3a565b5b8060405250919050565b600067ffffffffffffffff82111562000cd15762000cd062000e3a565b5b601f19601f8301169050602081019050919050565b600081519050919050565b600082825260208201905092915050565b600062000d0f8262000d2a565b9050919050565b600062000d238262000d2a565b9050919050565b600073ffffffffffffffffffffffffffffffffffffffff82169050919050565b6000819050919050565b600062000d618262000d68565b9050919050565b600062000d758262000d7c565b9050919050565b600062000d898262000d2a565b9050919050565b82818337600083830152505050565b60005b8381101562000dbf57808201518184015260208101905062000da2565b8381111562000dcf576000848401525b50505050565b6000600282049050600182168062000dee57607f821691505b6020821081141562000e055762000e0462000e0b565b5b50919050565b7f4e487b7100000000000000000000000000000000000000000000000000000000600052602260045260246000fd5b7f4e487b7100000000000000000000000000000000000000000000000000000000600052604160045260246000fd5b6000601f19601f8301169050919050565b62000e858162000d02565b811462000e9157600080fd5b50565b62000e9f8162000d16565b811462000eab57600080fd5b50565b62000eb98162000d4a565b811462000ec557600080fd5b5056fe60806040523480156200001157600080fd5b5060405162001d8438038062001d8483398181016040528101906200003791906200020f565b8383816003908051906020019062000051929190620000bf565b5080600490805190602001906200006a929190620000bf565b5050508160068190555080600560006101000a81548173ffffffffffffffffffffffffffffffffffffffff021916908373ffffffffffffffffffffffffffffffffffffffff1602179055505050505062000450565b828054620000cd9062000388565b90600052602060002090601f016020900481019282620000f157600085556200013d565b82601f106200010c57805160ff19168380011785556200013d565b828001600101855582156200013d579182015b828111156200013c5782518255916020019190600101906200011f565b5b5090506200014c919062000150565b5090565b5b808211156200016b57600081600090555060010162000151565b5090565b6000620001866200018084620002e1565b620002ad565b9050828152602081018484840111156200019f57600080fd5b620001ac84828562000352565b509392505050565b600081519050620001c5816200041c565b92915050565b600082601f830112620001dd57600080fd5b8151620001ef8482602086016200016f565b91505092915050565b600081519050620002098162000436565b92915050565b600080600080608085870312156200022657600080fd5b600085015167ffffffffffffffff8111156200024157600080fd5b6200024f87828801620001cb565b945050602085015167ffffffffffffffff8111156200026d57600080fd5b6200027b87828801620001cb565b93505060406200028e87828801620001f8565b9250506060620002a187828801620001b4565b91505092959194509250565b6000604051905081810181811067ffffffffffffffff82111715620002d757620002d6620003ed565b5b8060405250919050565b600067ffffffffffffffff821115620002ff57620002fe620003ed565b5b601f19601f8301169050602081019050919050565b6000620003218262000328565b9050919050565b600073ffffffffffffffffffffffffffffffffffffffff82169050919050565b6000819050919050565b60005b838110156200037257808201518184015260208101905062000355565b8381111562000382576000848401525b50505050565b60006002820490506001821680620003a157607f821691505b60208210811415620003b857620003b7620003be565b5b50919050565b7f4e487b7100000000000000000000000000000000000000000000000000000000600052602260045260246000fd5b7f4e487b7100000000000000000000000000000000000000000000000000000000600052604160045260246000fd5b620004278162000314565b81146200043357600080fd5b50565b620004418162000348565b81146200044d57600080fd5b50565b61192480620004606000396000f3fe608060405234801561001057600080fd5b50600436106100f55760003560e01c80633950935111610097578063a457c2d711610066578063a457c2d71461028a578063a9059cbb146102ba578063dd62ed3e146102ea578063fca3b5aa1461031a576100f5565b806339509351146101f057806370a082311461022057806395d89b411461025057806397304ced1461026e576100f5565b8063095ea7b3116100d3578063095ea7b31461015457806318160ddd1461018457806323b872dd146101a2578063313ce567146101d2576100f5565b8063047fc9aa146100fa57806306fdde03146101185780630754617214610136575b600080fd5b610102610336565b60405161010f91906116ef565b60405180910390f35b61012061033c565b60405161012d919061158d565b60405180910390f35b61013e6103ce565b60405161014b919061152e565b60405180910390f35b61016e600480360381019061016991906110f0565b6103f4565b60405161017b9190611572565b60405180910390f35b61018c610417565b60405161019991906116ef565b60405180910390f35b6101bc60048036038101906101b791906110a1565b610421565b6040516101c99190611572565b60405180910390f35b6101da610450565b6040516101e7919061170a565b60405180910390f35b61020a600480360381019061020591906110f0565b610459565b6040516102179190611572565b60405180910390f35b61023a6004803603810190610235919061103c565b610503565b60405161024791906116ef565b60405180910390f35b61025861054b565b604051610265919061158d565b60405180910390f35b6102886004803603810190610283919061112c565b6105dd565b005b6102a4600480360381019061029f91906110f0565b610713565b6040516102b19190611572565b60405180910390f35b6102d460048036038101906102cf91906110f0565b6107fd565b6040516102e19190611572565b60405180910390f35b61030460048036038101906102ff9190611065565b610820565b60405161031191906116ef565b60405180910390f35b610334600480360381019061032f919061103c565b6108a7565b005b60065481565b60606003805461034b9061181f565b80601f01602080910402602001604051908101604052809291908181526020018280546103779061181f565b80156103c45780601f10610399576101008083540402835291602001916103c4565b820191906000526020600020905b8154815290600101906020018083116103a757829003601f168201915b5050505050905090565b600560009054906101000a900473ffffffffffffffffffffffffffffffffffffffff1681565b6000806103ff6109b2565b905061040c8185856109ba565b600191505092915050565b6000600254905090565b60008061042c6109b2565b9050610439858285610b85565b610444858585610c11565b60019150509392505050565b60006012905090565b6000806104646109b2565b90506104f8818585600160008673ffffffffffffffffffffffffffffffffffffffff1673ffffffffffffffffffffffffffffffffffffffff16815260200190815260200160002060008973ffffffffffffffffffffffffffffffffffffffff1673ffffffffffffffffffffffffffffffffffffffff168152602001908152602001600020546104f39190611741565b6109ba565b600191505092915050565b60008060008373ffffffffffffffffffffffffffffffffffffffff1673ffffffffffffffffffffffffffffffffffffffff168152602001908152602001600020549050919050565b60606004805461055a9061181f565b80601f01602080910402602001604051908101604052809291908181526020018280546105869061181f565b80156105d35780601f106105a8576101008083540402835291602001916105d3565b820191906000526020600020905b8154815290600101906020018083116105b657829003601f168201915b5050505050905090565b600560009054906101000a900473ffffffffffffffffffffffffffffffffffffffff1673ffffffffffffffffffffffffffffffffffffffff163373ffffffffffffffffffffffffffffffffffffffff161461066d576040517f08c379a00000000000000000000000000000000000000000000000000000000081526004016106649061168f565b60405180910390fd5b8060065461068b8261067d610417565b610e9290919063ffffffff16565b11156106cc576040517f08c379a00000000000000000000000000000000000000000000000000000000081526004016106c39061162f565b60405180910390fd5b6106d63383610ea8565b7f0f6798a560793a54c3bcfe86a93cde1e73087d944c0ea20544137d41213968853383604051610707929190611549565b60405180910390a15050565b60008061071e6109b2565b90506000600160008373ffffffffffffffffffffffffffffffffffffffff1673ffffffffffffffffffffffffffffffffffffffff16815260200190815260200160002060008673ffffffffffffffffffffffffffffffffffffffff1673ffffffffffffffffffffffffffffffffffffffff168152602001908152602001600020549050838110156107e4576040517f08c379a00000000000000000000000000000000000000000000000000000000081526004016107db906116af565b60405180910390fd5b6107f182868684036109ba565b60019250505092915050565b6000806108086109b2565b9050610815818585610c11565b600191505092915050565b6000600160008473ffffffffffffffffffffffffffffffffffffffff1673ffffffffffffffffffffffffffffffffffffffff16815260200190815260200160002060008373ffffffffffffffffffffffffffffffffffffffff1673ffffffffffffffffffffffffffffffffffffffff16815260200190815260200160002054905092915050565b600560009054906101000a900473ffffffffffffffffffffffffffffffffffffffff1673ffffffffffffffffffffffffffffffffffffffff163373ffffffffffffffffffffffffffffffffffffffff1614610937576040517f08c379a000000000000000000000000000000000000000000000000000000000815260040161092e9061168f565b60405180910390fd5b80600560006101000a81548173ffffffffffffffffffffffffffffffffffffffff021916908373ffffffffffffffffffffffffffffffffffffffff1602179055507fcec52196e972044edde8689a1b608e459c5946b7f3e5c8cd3d6d8e126d422e1c816040516109a7919061152e565b60405180910390a150565b600033905090565b600073ffffffffffffffffffffffffffffffffffffffff168373ffffffffffffffffffffffffffffffffffffffff161415610a2a576040517f08c379a0000000000000000000000000000000000000000000000000000000008152600401610a219061166f565b60405180910390fd5b600073ffffffffffffffffffffffffffffffffffffffff168273ffffffffffffffffffffffffffffffffffffffff161415610a9a576040517f08c379a0000000000000000000000000000000000000000000000000000000008152600401610a91906115cf565b60405180910390fd5b80600160008573ffffffffffffffffffffffffffffffffffffffff1673ffffffffffffffffffffffffffffffffffffffff16815260200190815260200160002060008473ffffffffffffffffffffffffffffffffffffffff1673ffffffffffffffffffffffffffffffffffffffff168152602001908152602001600020819055508173ffffffffffffffffffffffffffffffffffffffff168373ffffffffffffffffffffffffffffffffffffffff167f8c5be1e5ebec7d5bd14f71427d1e84f3dd0314c0f7b2291e5b200ac8c7c3b92583604051610b7891906116ef565b60405180910390a3505050565b6000610b918484610820565b90507fffffffffffffffffffffffffffffffffffffffffffffffffffffffffffffffff8114610c0b5781811015610bfd576040517f08c379a0000000000000000000000000000000000000000000000000000000008152600401610bf4906115ef565b60405180910390fd5b610c0a84848484036109ba565b5b50505050565b600073ffffffffffffffffffffffffffffffffffffffff168373ffffffffffffffffffffffffffffffffffffffff161415610c81576040517f08c379a0000000000000000000000000000000000000000000000000000000008152600401610c789061164f565b60405180910390fd5b600073ffffffffffffffffffffffffffffffffffffffff168273ffffffffffffffffffffffffffffffffffffffff161415610cf1576040517f08c379a0000000000000000000000000000000000000000000000000000000008152600401610ce8906115af565b60405180910390fd5b610cfc838383611008565b60008060008573ffffffffffffffffffffffffffffffffffffffff1673ffffffffffffffffffffffffffffffffffffffff16815260200190815260200160002054905081811015610d82576040517f08c379a0000000000000000000000000000000000000000000000000000000008152600401610d799061160f565b60405180910390fd5b8181036000808673ffffffffffffffffffffffffffffffffffffffff1673ffffffffffffffffffffffffffffffffffffffff16815260200190815260200160002081905550816000808573ffffffffffffffffffffffffffffffffffffffff1673ffffffffffffffffffffffffffffffffffffffff1681526020019081526020016000206000828254610e159190611741565b925050819055508273ffffffffffffffffffffffffffffffffffffffff168473ffffffffffffffffffffffffffffffffffffffff167fddf252ad1be2c89b69c2b068fc378daa952ba7f163c4a11628f55a4df523b3ef84604051610e7991906116ef565b60405180910390a3610e8c84848461100d565b50505050565b60008183610ea09190611741565b905092915050565b600073ffffffffffffffffffffffffffffffffffffffff168273ffffffffffffffffffffffffffffffffffffffff161415610f18576040517f08c379a0000000000000000000000000000000000000000000000000000000008152600401610f0f906116cf565b60405180910390fd5b610f2460008383611008565b8060026000828254610f369190611741565b92505081905550806000808473ffffffffffffffffffffffffffffffffffffffff1673ffffffffffffffffffffffffffffffffffffffff1681526020019081526020016000206000828254610f8b9190611741565b925050819055508173ffffffffffffffffffffffffffffffffffffffff16600073ffffffffffffffffffffffffffffffffffffffff167fddf252ad1be2c89b69c2b068fc378daa952ba7f163c4a11628f55a4df523b3ef83604051610ff091906116ef565b60405180910390a36110046000838361100d565b5050565b505050565b505050565b600081359050611021816118c0565b92915050565b600081359050611036816118d7565b92915050565b60006020828403121561104e57600080fd5b600061105c84828501611012565b91505092915050565b6000806040838503121561107857600080fd5b600061108685828601611012565b925050602061109785828601611012565b9150509250929050565b6000806000606084860312156110b657600080fd5b60006110c486828701611012565b93505060206110d586828701611012565b92505060406110e686828701611027565b9150509250925092565b6000806040838503121561110357600080fd5b600061111185828601611012565b925050602061112285828601611027565b9150509250929050565b60006020828403121561113e57600080fd5b600061114c84828501611027565b91505092915050565b61115e81611797565b82525050565b61116d816117a9565b82525050565b600061117e82611725565b6111888185611730565b93506111988185602086016117ec565b6111a1816118af565b840191505092915050565b60006111b9602383611730565b91507f45524332303a207472616e7366657220746f20746865207a65726f206164647260008301527f65737300000000000000000000000000000000000000000000000000000000006020830152604082019050919050565b600061121f602283611730565b91507f45524332303a20617070726f766520746f20746865207a65726f20616464726560008301527f73730000000000000000000000000000000000000000000000000000000000006020830152604082019050919050565b6000611285601d83611730565b91507f45524332303a20696e73756666696369656e7420616c6c6f77616e63650000006000830152602082019050919050565b60006112c5602683611730565b91507f45524332303a207472616e7366657220616d6f756e742065786365656473206260008301527f616c616e636500000000000000000000000000000000000000000000000000006020830152604082019050919050565b600061132b600f83611730565b91507f537570706c79204f766572666c6f7700000000000000000000000000000000006000830152602082019050919050565b600061136b602583611730565b91507f45524332303a207472616e736665722066726f6d20746865207a65726f20616460008301527f64726573730000000000000000000000000000000000000000000000000000006020830152604082019050919050565b60006113d1602483611730565b91507f45524332303a20617070726f76652066726f6d20746865207a65726f2061646460008301527f72657373000000000000000000000000000000000000000000000000000000006020830152604082019050919050565b6000611437600a83611730565b91507f4e6f74204d696e746572000000000000000000000000000000000000000000006000830152602082019050919050565b6000611477602583611730565b91507f45524332303a2064656372656173656420616c6c6f77616e63652062656c6f7760008301527f207a65726f0000000000000000000000000000000000000000000000000000006020830152604082019050919050565b60006114dd601f83611730565b91507f45524332303a206d696e7420746f20746865207a65726f2061646472657373006000830152602082019050919050565b611519816117d5565b82525050565b611528816117df565b82525050565b60006020820190506115436000830184611155565b92915050565b600060408201905061155e6000830185611155565b61156b6020830184611510565b9392505050565b60006020820190506115876000830184611164565b92915050565b600060208201905081810360008301526115a78184611173565b905092915050565b600060208201905081810360008301526115c8816111ac565b9050919050565b600060208201905081810360008301526115e881611212565b9050919050565b6000602082019050818103600083015261160881611278565b9050919050565b60006020820190508181036000830152611628816112b8565b9050919050565b600060208201905081810360008301526116488161131e565b9050919050565b600060208201905081810360008301526116688161135e565b9050919050565b60006020820190508181036000830152611688816113c4565b9050919050565b600060208201905081810360008301526116a88161142a565b9050919050565b600060208201905081810360008301526116c88161146a565b9050919050565b600060208201905081810360008301526116e8816114d0565b9050919050565b60006020820190506117046000830184611510565b92915050565b600060208201905061171f600083018461151f565b92915050565b600081519050919050565b600082825260208201905092915050565b600061174c826117d5565b9150611757836117d5565b9250827fffffffffffffffffffffffffffffffffffffffffffffffffffffffffffffffff0382111561178c5761178b611851565b5b828201905092915050565b60006117a2826117b5565b9050919050565b60008115159050919050565b600073ffffffffffffffffffffffffffffffffffffffff82169050919050565b6000819050919050565b600060ff82169050919050565b60005b8381101561180a5780820151818401526020810190506117ef565b83811115611819576000848401525b50505050565b6000600282049050600182168061183757607f821691505b6020821081141561184b5761184a611880565b5b50919050565b7f4e487b7100000000000000000000000000000000000000000000000000000000600052601160045260246000fd5b7f4e487b7100000000000000000000000000000000000000000000000000000000600052602260045260246000fd5b6000601f19601f8301169050919050565b6118c981611797565b81146118d457600080fd5b50565b6118e0816117d5565b81146118eb57600080fd5b5056fea26469706673582212206c259df69cf918efea6fe5ce6b5e8ea3612f7b583276ef53b387d16c3537ca2f64736f6c63430008000033a264697066735822122032fb70e949fa018cbefe3b190f21256866b98a1b2c2eaa23848a82449124890264736f6c63430008000033",
  "immutableReferences": {},
  "source": "// SPDX-License-Identifier: MIT\npragma solidity ^0.8.0;\n\nimport \"./TokenContract.sol\";\n\n\ncontract TokenFactory {\n    mapping(address => string) public tokenName;\n    address[] public tokensCreated;\n    address public owner;\n    uint256 public payableFees = 0.1 ether;\n\n    event TokenCreated(address TokenAddress);\n    event SetPayableFees(uint256 payableAmt);\n    event SetOwner(address _owner);\n    event WithdrawFees(address sendTo, uint256 Amt);\n\n    constructor(address _owner) {\n        owner = _owner;\n    }\n\n    modifier onlyOwner() {\n        require(msg.sender == owner, \"Not Owner\");\n\n        _;\n    }\n\n    modifier payableAmt() {\n        require(msg.value == payableFees, \"Invalid Amount\");\n\n        _;\n    }\n\n    function createToken(\n        string memory _name,\n        string memory _symbol,\n        uint256 _supply,\n        address _minter\n    ) external payable payableAmt() {\n        \n        _deployToken(_name, _symbol, _supply, _minter);\n    }\n\n    function withdrawFees(address payable _sendTo) external onlyOwner {\n        emit WithdrawFees(_sendTo, address(this).balance);\n        _sendTo.transfer(address(this).balance);\n    }\n\n    function setPayableFees(uint256 _payableFees) external onlyOwner {\n        payableFees = _payableFees;\n        emit SetPayableFees(_payableFees);\n    }\n\n    function setOwner(address _owner) external onlyOwner {\n        owner = _owner;\n        emit SetOwner(_owner);\n    }\n\n    function _deployToken(\n        string memory _name,\n        string memory _symbol,\n        uint256 _supply,\n        address _minter\n    ) internal {\n        TokenContract token = new TokenContract(\n            _name,\n            _symbol,\n            _supply,\n            _minter\n        );\n        tokenName[address(token)] = _name;\n        tokensCreated.push(address(token));\n        emit TokenCreated(address(token));\n    }\n}\n",
  "sourcePath": "/Users/personal/Documents/ factory example/contracts/Normal Token/TokenFactory.sol",
  "compiler": {
    "name": "solc",
    "version": "0.8.0+commit.c7dfd78e.Emscripten.clang"
  },
  "schemaVersion": "3.4.1",
  "updatedAt": "2022-04-26T16:36:27.533Z",
  "devdoc": {
    "kind": "dev",
    "methods": {},
    "version": 1
  },
  "userdoc": {
    "kind": "user",
    "methods": {},
    "version": 1
  }
}